S01E00004F76696E67315F54544B343135355F4731375F4831372E7372656394
S11300000C94F2010C944C020C94A8020C940F0270
S11300100C940F020C940F020C940F020C940F0218
S11300200C940F020C940F020C940F020C940F0208
S11300300C940F020C940F020C940F020C940F02F8
S11300400C940F020C940F020C940F020C940F02E8
S11300500C940F020C940F020C940F020C940F02D8
S11300600C940F020C940F020C940F020C940F02C8
S113007043616C6962726174650000006669742092
S113008073637265656E0000436F6E74726173749E
S1130090000000004D75736963000000000000005B
S11300A04F7074696F6E73000000000044656275E0
S11300B067000000000000004869676873636F729E
S11300C065000000000000000000000000065F5F03
S11300D0060000000007070007070000147F7F14D4
S11300E07F7F1400242E6B6B3A1200004666301892
S11300F00C666200307A4F5D377A480004070300CB
S113010000000000001C3E63410000000041633E0B
S11301101C000000082A3E1C1C3E2A0808083E3E1B
S11301200808000000A0E0600000000008080808BB
S11301300808000000006060000000006030180C37
S1130140060301003E7F594D7F3E000042427F7FFF
S113015040400000627359496F66000022634949B8
S11301607F360000181C16137F7F10002767454553
S11301707D3900003C7E4B497930000003637119DE
S11301800F070000367F49497F360000064F496952
S11301903F1E000000006C6C0000000000A0EC6C2E
S11301A000000000081C36634100000014141414FD
S11301B014140000004163361C0800000203515966
S11301C00F0600003E7F415D5D1F1E007C7E131301
S11301D07E7C0000417F7F49497F36001C3E63419D
S11301E041632200417F7F41637F1C00417F7F493F
S11301F05D416300417F7F491D0103001C3E634153
S1130200517372007F7F08087F7F000000417F7F69
S113021041000000307040417F3F0100417F7F0872
S11302201C776300417F7F41406070007F7F060C34
S1130230067F7F007F7F060C187F7F001C3E634192
S1130240633E1C00417F7F49090F06001E3F217158
S11302507F5E0000417F7F19396F460026674D5944
S11302607B32000003417F7F410300007F7F4040D9
S11302707F7F00001F3F60603F1F00007F7F3018BA
S1130280307F7F0063771C081C776300074F787802
S11302904F0700006773594D47637100007F7F412A
S11302A0410000000103060C183060000041417F4A
S11302B07F000000080C0603060C08008080808084
S11302C080808080000003070400000020745454E0
S11302D03C784000413F7F44447C3800387C4444AF
S11302E06C280000307848493F7F4000387C5454E3
S11302F05C180000487E7F490302000098BCA4A457
S1130300F87C0400417F7F08047C780000447D7DF4
S11303104000000040C484FD7D000000417F7F1048
S1130320386C440000417F7F400000007C7C0C1846
S11303300C7C78007C7C04047C780000387C444489
S11303407C38000084FCF8A4243C1800183C24A445
S1130350F8FC8400447C78441C180000485C545425
S11303607424000000043E7F442400003C7C404090
S11303703C7C40001C3C60603C1C00003C7C6030C9
S1130380607C3C00446C3810386C44009CBCA0A0D9
S1130390FC7C00004C64745C4C64000008083E77EC
S11303A04141000000000077770000004141773EA2
S11303B00808000002030103020301006686B0700E
S11303C070B08666007E424242427E00007E7E7E9F
S11303D07E7E7E00FF80808080808080010101011C
S11303E0010101FF11241FBECFEFD4E0DEBFCDBF5A
S11303F013E0A0E0B1E0EEE8F2E202C005900D9255
S1130400A03CB107D9F724E0A0ECB3E001C01D92F1
S1130410A533B207E1F70E949C050C9445110C9496
S113042000008230910571F01CF4019739F01CC072
S11304308330910559F0049769F016C084E18093E4
S113044000140BC085E18093001407C086E18093FB
S1130450001403C087E18093001482E58A95F1F7C4
S11304608091001490E0089580E090E00895BA9A95
S1130470BB9A85B7816085BF85B7826085BF85B724
S1130480846085BF85B7886085BF8BB780648BBF68
S11304908BB780688BBF08951F920F920FB60F928F
S11304A01124EF92FF920F931F932F933F934F9337
S11304B05F936F937F938F939F93AF93BF93CF93E8
S11304C0DF93EF93FF9380E191E09F938F930E94DA
S11304D0A80C82E50E94CB03F82EE92E8CE40E943E
S11304E0CB03182F092F89E50E94CB03C82FD92FDE
S11304F088E50E94CB03EF92FF920F931F93DF9343
S1130500CF939F938F9389E391E09F938F930E945E
S1130510A80C8DB79EB70C960FB6F8949EBF0FBE6D
S11305208DBFFF91EF91DF91CF91BF91AF919F91DB
S11305308F917F916F915F914F913F912F911F9177
S11305400F91FF90EF900F900FBE0F901F90189592
S11305501F920F920FB60F9211242F933F934F9334
S11305605F936F937F938F939F93AF93BF93EF9317
S1130570FF9382E591E00E94BC0CFF91EF91BF9143
S1130580AF919F918F917F916F915F914F913F9127
S11305902F910F900FBE0F901F9018950F931F93DC
S11305A0CF93DF93C4E6D0E00091CA031091CB034C
S11305B081E090E00E94110201581F4F081B190BA3
S11305C01093CB030093CA030091C8031091C9038D
S11305D082E090E00E94110201581F4F081B190B82
S11305E01093C9030093C80321972097E9F68091DB
S11305F0CA039091CB0324E630E0B9010E94D70BE3
S11306007093CB036093CA038091C8039091C9038C
S1130610B9010E94D70B7093C9036093C803DF919B
S1130620CF911F910F9108952F923F924F925F9215
S11306306F927F928F929F92AF92BF92CF92DF92EE
S1130640EF92FF920F931F93CF93DF9300D000D0CC
S113065000D0CDB7DEB73C017A8369835C834B83DA
S11306603E832D8318018501B901882777FD809584
S1130670982F0E946D0A4B015C01B3016E0D7F1D22
S113068029813A81621B730B882777FD8095982F07
S11306900E946D0A2B013C01B1018D819E81681B72
S11306A0790B882777FD8095982F0E946D0A9B010E
S11306B0AC01C301B2010E941D0B2B013C016B81F3
S11306C07C81E981FA816E1B7F0B882777FD8095F9
S11306D0982F0E946D0A9B01AC01C301B2010E94D4
S11306E0D2099B01AC01C501B4010E946A090E94B0
S11306F03A0AC101801B910B6817790774F58D8143
S11307009E81800F911F861797074CF5F8011123DE
S11307100CF43196F595E795D80112C08A0F9B1F0A
S1130720AC014E0F5F1F6417750714F069010BC00D
S1130730C6018E1B9F0B8617970714F0C01AD10AA7
S1130740C601801B910B9601200F311F621773079E
S11307502CF78617970714F704C0610102C0CD80F7
S1130760DE80C60126960FB6F894DEBF0FBECDBF5D
S1130770DF91CF911F910F91FF90EF90DF90CF9079
S1130780BF90AF909F908F907F906F905F904F90AD
S11307903F902F900895AF92BF92CF92DF92EF9245
S11307A0FF920F931F93823509F474C020F48C34A4
S11307B009F44EC091C0883519F0893529F18CC0EF
S11307C0C090C603D090C703E090CA03F090CB0357
S11307D081E090E00E9411020F2EFAE0AF2EB12CBE
S11307E0F02D04E610E02CE93FEF4FEF50E060E01D
S11307F070E00E9414039093C7038093C603809112
S1130800C6039091C7036AC0C090C403D090C503C7
S1130810E090C803F090C90382E090E00E941102C6
S11308200F2EFAE0AF2EB12CF02D04E610E02CE9E7
S11308303FEF4FEF50E060E070E00E9414039093AC
S1130840C5038093C4038091C4039091C50346C03B
S1130850C090C203D090C30383E090E00E941102D1
S11308600F2EFAE0AF2EB12CF02DE12CF12C04E682
S113087010E020E030E04FEF50E060E070E00E94D4
S113088014039093C3038093C2038091C203909195
S1130890C30324C0C090C003D090C10384E090E09F
S11308A00E9411020F2EFAE0AF2EB12CF02DE12C94
S11308B0F12C04E610E020E030E04FEF50E060E07F
S11308C070E00E9414039093C1038093C00380914D
S11308D0C0039091C10302C080E090E01F910F918A
S11308E0FF90EF90DF90CF90BF90AF9008950E945B
S11308F0CE0288E50E94CB039093C7038093C6037E
S113090089E50E94CB039093C5038093C4038CE4D0
S11309100E94CB039093C3038093C20382E50E9499
S1130920CB039093C1038093C0032091C8033091FB
S1130930C9038091CA039091CB033F932F939F9354
S11309408F9386E691E09F938F930E94A80C609109
S1130950C0037091C1034091C2035091C30320911D
S1130960C4033091C5038091C6039091C7037F935C
S11309706F935F934F933F932F939F938F938FE83E
S113098091E09F938F930E94A80C8DB79EB74096D9
S11309900FB6F8949EBF0FBE8DBF0895CF92DF921D
S11309A0EF92FF920F931F93CF93DF9388EB91E025
S11309B00E94BC0C0E944D0C6C010E94520CC0E0C1
S11309C0D0E000E010E00F2EFEECEF2EF1E0FF2E61
S11309D0F02D0E944D0CFE01F85E808320812817C3
S11309E0A9F099279F938F931F922F93DF93CF930F
S11309F0FF92EF920E94A80C0F5F1F4F8DB79EB716
S1130A0008960FB6F8949EBF0FBE8DBF2196C115F0
S1130A1098E0D907F1F6C6010E94520CC0E0D0E07C
S1130A20E12CF12C0F2EF7E0CF2EF2E0DF2EF02D8B
S1130A300E944D0CFE01F85E20812817B1F0992721
S1130A409F938F931F922F93DF93CF93DF92CF9235
S1130A500E94A80C8FEFE81AF80A8DB79EB7089683
S1130A600FB6F8949EBF0FBE8DBF2196C11598E0B6
S1130A70D907F1F6FF92EF921F930F9384E492E06B
S1130A809F938F930E94A80C0F900F900F900F903C
S1130A900F900F90DF91CF911F910F91FF90EF90E6
S1130AA0DF90CF900895F8948FE190E00E945E0962
S1130AB08BE992E09F938F9384EA92E09F938F93C4
S1130AC080EB92E09F938F9385EB92E09F938F93BB
S1130AD00E94A80C85B7806885BF80B7806280BFFC
S1130AE00E94E2068BEF92E00E94BC0C0E94CE05AD
S1130AF00E94770489E193E00E94BC0C0E94CE041A
S1130B0081E493E00E94BC0C0E9437028FE593E0DD
S1130B100E94BC0C83E893E00E94BC0C88E993E03B
S1130B200E94BC0C78948DB79EB708960FB6F894C3
S1130B309EBF0FBE8DBF08950E9453050E94C30738
S1130B4087E50E946F070E940A094DE350E060E2C6
S1130B5070E080E490E00E9432080E940A090E943A
S1130B600A090E940A094FE150E060E270E080E463
S1130B7090E00E9432080E940A090E940A0981EB4F
S1130B8093E00E94B8070E940A098BEB93E09F93BD
S1130B908F930E94A80C0F900F90FFCFCF93DF93F9
S1130BA0CDE1D4E0D0930404C0930304109206046E
S1130BB0109205041092080410920704EFEFF3E07A
S1130BC088EB90E09183808383E090E0909302042B
S1130BD08093010425ED33E0309322042093210413
S1130BE069E074E070932404609323041092260453
S1130BF0109225044CEA50E05983488390932004D2
S1130C0080931F04F093DA03E093D903CBEED3E08F
S1130C10D093DC03C093DB031092DE031092DD0358
S1130C2040EA50E0D9014D935C939093D8038093AC
S1130C30D70325EF33E03093F0032093EF031092B2
S1130C40F2031092F103F093F403E093F30384E9C5
S1130C5090E09983888382E090E09093EE03809300
S1130C60ED03D093FA03C093F9031092FC0310929E
S1130C70FB03F093FE03E093FD0348E850E0D90141
S1130C804D935C939093F8038093F703C3E1D4E00E
S1130C90D0930E04C0930D041092100410920F040C
S1130CA0F0931204E09311042CE730E0DB012D9360
S1130CB03C9390930C0480930B04709318046093FA
S1130CC0170410921A0410921904F0931C04E09370
S1130CD01B0420E730E03983288390931604809323
S1130CE01504F093D203E093D103F093D403E0937B
S1130CF0D303DF91CF91089510922A04109229040E
S1130D001092280410922704E0910E01F0910F0133
S1130D1081E28083E0910E01F0910F011082E09155
S1130D200E01F0910F018FE78083E0910E01F091A5
S1130D300F0182E28083E0910E01F0910F01108295
S1130D40E0910E01F0910F0187E080830895CF9325
S1130D50DF93EC010E947C06D0932A04C0932904FB
S1130D60C830D10588F4E0910E01F0910F01108292
S1130D70E0910E01F0910F0180E18083C06BE0915E
S1130D800E01F0910F01C083DF91CF910895089770
S1130D9050F480E890E0E0910C01F0910D01108294
S1130DA001970097C1F70895CF93DF93C0E0D0E097
S1130DB0CE010E94C7062196C830D105C9F7DF913C
S1130DC0CF91089585B7806885BF80B7806280BF62
S1130DD0E0910E01F0910F018EEA8083E0910E0103
S1130DE0F0910F0181EA8083E0910E01F0910F01EF
S1130DF08AED8083E0910E01F0910F0182E18083FE
S1130E00E0910E01F0910F0188EC8083E0910E01D6
S1130E10F0910F0188EA8083E0910E01F0910F01B7
S1130E208FE38083E0910E01F0910F0185ED8083C3
S1130E30E0910E01F0910F0180E88083E0910E01B2
S1130E40F0910F0181E88083E0910E01F0910F0190
S1130E5080E58083E0910E01F0910F0189ED80839C
S1130E60E0910E01F0910F0181E28083E0910E0187
S1130E70F0910F0180E28083E0910E01F0910F0167
S1130E801082E0910E01F0910F018BED8083E091CF
S1130E900E01F0910F0180E38083E0910E01F09147
S1130EA00F018DEA8083E0910E01F0910F01108211
S1130EB0E0910E01F0910F0184EA8083E0910E012C
S1130EC0F0910F0186EA8083E0910E01F0910F0109
S1130ED08FEA80830E94D4060E947C0608958823AA
S1130EE009F443C0E82FF0E0EE0FFF1FEE0FFF1FE1
S1130EF0EE0FFF1FEC53F04080E090E0A091CF0391
S1130F00B091D003B695BA2FAA27B795A79520918B
S1130F10CD033091CE03A20FB31F20910A0130916B
S1130F200B01A20FB31F24912C932091CD03309178
S1130F30CE032F5F3F4F3093CE032093CD03019612
S1130F40319688309105D1F681E090E00090CF038E
S1130F5002C0880F991F0A94E2F79091CC03892B61
S1130F608093CC0381E090E0089580E090E00895C0
S1130F70CF93DF93EC0189910E946F07892BD9F7F6
S1130F80DF91CF91089540E050E070E060E014C03C
S1130F909C01240F351FE0910A01F0910B01E20F2F
S1130FA0F31F108201968038910591F740585F4FE6
S1130FB0411584E0580719F0872F962FE9CF8FEF5A
S1130FC08093CC030895FC01F695FE2FEE27F79548
S1130FD0E7956E0F7F1FE0910A01F0910B01E60F78
S1130FE0F71F9081492B408321E030E0A90102C022
S1130FF0440F551F8A95E2F7CA019091CC03892BBF
S11310008093CC0308958038910530F560347105E0
S113101030F59B0127703078332334F421503109A3
S1131020286F3F6F2F5F3F4F41E050E002C0440FF5
S1131030551F2A95E2F7FB01FF230CF43796BC01F8
S1131040CF019595879595958795959587950E9458
S1131050E30781E090E0089580E090E0089580E067
S113106090E008954F925F926F927F928F929F9239
S1131070AF92BF92CF92DF92EF92FF92CF93DF9322
S1131080CDB7DEB768970FB6F894DEBF0FBECDBFFD
S11310906C017B015A0166277727641B750B88272F
S11310A077FD8095982F0E946D0A2B013C01B501B4
S11310B0882777FD8095982F0E946D0A69877A8723
S11310C08B879C879B01AC01C301B2010E94CE09AE
S11310D018160CF48AC029853A854B855C85CA01AB
S11310E0B9010E941D0B6D877E878F87988BC7017E
S11310F0AA2797FDA095BA2F898B9A8BAB8BBC8BB3
S1131100C601AA2797FDA095BA2F8D8B9E8BAF8B16
S1131110B88F69897A898B899C890E946D0A4B01F1
S11311205C01A3019201C301B2010E941D0B9B014A
S1131130AC016D857E858F8598890E9469090E941E
S1131140840B69837A838B839C836D897E898F89E1
S1131150988D0E946D0A6B017C0129813A814B8133
S11311605C81C501B4010E9469090E943A0A6D8339
S11311707E838F839887A3019201C701B6010E94E1
S11311806A090E943A0ADC01CB016D817E810E94CA
S1131190030829813A814B815C81C501B4010E9415
S11311A06A090E943A0A4B015C01A3019201C7013A
S11311B0B6010E9469090E943A0ADC01CB01B4011C
S11311C00E9403082AE037ED43EA5CE3C301B2015D
S11311D00E946A092B013C0129853A854B855C856F
S11311E00E94CE0918160CF094CF68960FB6F894A6
S11311F0DEBF0FBECDBFDF91CF91FF90EF90DF90A8
S1131200CF90BF90AF909F908F907F906F905F90A2
S11312104F900895CF92DF92EF92FF920F931F9316
S1131220CF93DF938091CC038823B1F1E12CF12C8F
S1131230C0E0D0E0CC24C394D12C86010C2E02C093
S1131240000F111F0A94E2F78023C1F0CE010E941F
S1131250A706C70180589F4F9701E0910A01F091BA
S11312600B01E20FF31F4081E0910C01F0910D019D
S113127040832F5F3F4F2817390779F700958091F6
S1131280CC0308230093CC03219680E8E80EF11CDC
S1131290002311F0802FD1CFDF91CF911F910F91B7
S11312A0FF90EF90DF90CF9008955D9BFECF8CB9B7
S11312B008955F9BFECF8CB190E0089590BD89B9ED
S11312C088E18AB969E579E085E599E00E945D0CD9
S11312D008955058BB27AA270ED075C166D130F0A7
S11312E06BD120F031F49F3F11F41EF45BC10EF476
S11312F0E095E7FB51C1E92F77D180F3BA17620774
S113130073078407950718F071F49EF58FC10EF4E6
S1131310E0950B2EBA2FA02D0B01B90190010C0101
S1131320CA01A0011124FF27591B99F0593F50F419
S1131330503E68F11A16F040A22F232F342F442771
S1131340585FF3CF469537952795A795F040539569
S1131350C9F77EF41F16BA0B620B730B840BBAF039
S11313609150A1F0FF0FBB1F661F771F881FC2F7A4
S11313700EC0BA0F621F731F841F48F487957795B8
S11313806795B795F7959E3F08F0B3CF9395880F6F
S113139008F09927EE0F979587950895D9D008F40A
S11313A081E008950CD00FC107D140F0FED030F099
S11313B021F45F3F19F0F0C0511139C1F3C014D1C9
S11313C098F39923C9F35523B1F3951B550BBB2708
S11313D0AA2762177307840738F09F5F5F4F220FB5
S11313E0331F441FAA1FA9F333D00E2E3AF0E0E8AE
S11313F030D091505040E695001CCAF729D0FE2FFA
S113140027D0660F771F881FBB1F2617370748078B
S1131410AB07B0E809F0BB0B802DBF01FF27935841
S11314205F4F2AF09E3F510568F0B6C000C15F3F90
S1131430ECF3983EDCF3869577956795B795F79529
S11314409F5FC9F7880F911D9695879597F9089521
S1131450E1E0660F771F881FBB1F621773078407BD
S1131460BA0720F0621B730B840BBA0BEE1F88F7CC
S1131470E095089504D06894B111D9C00895BCD002
S113148088F09F5790F0B92F9927B751A0F0D1F069
S1131490660F771F881F991F1AF0BA95C9F712C0F3
S11314A0B13081F0C3D0B1E00895C0C0672F782F68
S11314B08827B85F39F0B93FCCF38695779567955F
S11314C0B395D9F73EF490958095709561957F4FCB
S11314D08F4F9F4F0895E89409C097FB3EF4909571
S11314E08095709561957F4F8F4F9F4F9923A9F0F9
S11314F0F92F96E9BB279395F69587957795679588
S1131500B795F111F8CFFAF4BB0F11F460FF1BC0CB
S11315106F5F7F4F8F4F9F4F16C0882311F096E95E
S113152011C0772321F09EE8872F762F05C066230C
S113153071F096E8862F70E060E02AF09A95660FC5
S1131540771F881FDAF7880F9695879597F908957E
S1131550990F0008550FAA0BE0E8FEEF16161706C0
S1131560E807F907C0F012161306E407F50798F028
S1131570621B730B840B950B39F40A2661F0232B41
S1131580242B252B21F408950A2609F4A140A695BD
S11315908FEF811D811D089597F99F6780E870E0A2
S11315A060E008959FEF80EC089500240A941616D5
S11315B0170618060906089500240A94121613063D
S11315C0140605060895092E0394000C11F48823CB
S11315D052F0BB0F40F4BF2B11F460FF04C06F5FE7
S11315E07F4F8F4F9F4F089557FD9058440F551FBD
S11315F059F05F3F71F04795880F97FB991F61F091
S11316009F3F79F087950895121613061406551F07
S1131610F2CF4695F1DF08C0161617061806991F73
S1131620F1CF86957105610508940895E894BB2768
S113163066277727CB0197F908950BD0C4CFB5DF80
S113164028F0BADF18F0952309F0A6CFABCF112408
S1131650EECFCADFA0F3959FD1F3950F50E0551F4D
S1131660629FF001729FBB27F00DB11D639FAA27F3
S1131670F00DB11DAA1F649F6627B00DA11D661F42
S1131680829F2227B00DA11D621F739FB00DA11D63
S1131690621F839FA00D611D221F749F3327A00D1D
S11316A0611D231F849F600D211D822F762F6A2FB9
S11316B011249F5750408AF0E1F088234AF0EE0F3E
S11316C0FF1FBB1F661F771F881F91505040A9F74B
S11316D09E3F510570F060CFAACF5F3FECF3983E78
S11316E0DCF3869577956795B795F795E7959F5FB2
S11316F0C1F7FE2B880F911D9695879597F908954C
S113170011F40EF44FCF3EC077DFD0F39923D9F311
S1131710CEF39F57550B87FF43D00024A0E640EA41
S1131720900180585695979528F4805C660F771F32
S1131730881F20F026173707480730F4621B730B05
S1131740840B202931294A2BA69517940794202528
S113175031254A2758F7660F771F881F20F0261770
S11317603707480730F4620B730B840B200D311DCF
S1131770411DA09581F7B901842F9158880F969542
S1131780879508959F3F31F0915020F48795779580
S11317906795B795880F911D9695879597F9089544
S11317A091505040660F771F881FD2F7089597FB1A
S11317B0072E16F4009407D077FD09D00E94EB0B96
S11317C007FC05D03EF4909581959F4F0895709540
S11317D061957F4F0895AA1BBB1B51E107C0AA1F47
S11317E0BB1FA617B70710F0A61BB70B881F991FBE
S11317F05A95A9F780959095BC01CD0108958F92D3
S11318009F92AF92BF92CF92DF92EF92FF92CF93CB
S1131810DF93EC01688179818A819B81611571056F
S11318208105910521F464E279ED8BE597E02DE1E2
S113183033EF41E050E00E94AB1049015A019B0193
S1131840AC01A7EAB1E40E94CA106B017C01ACEEC2
S1131850B4EFA50194010E94D810C60ED71EE81E4D
S1131860F91EF7FE06C081E0C81AD108E10880E835
S1131870F80AC882D982EA82FB82C6019F77DF9187
S1131880CF91FF90EF90DF90CF90BF90AF909F905B
S11318908F9008950E94FF0B089580E091E00E94CC
S11318A0FF0B0895A0E0B0E0809300019093010144
S11318B0A0930201B093030108950F931F93CF9354
S11318C0DF93EC018B01009731F46115710519F474
S11318D080E090E038C06EE070E081E090E00E942B
S11318E0BB0EFC010097A1F380E883830115110569
S11318F071F01387028781E8838380912B04909190
S11319002C04892B21F4F0932C04E0932B042097CE
S1131910C9F0D187C08783818260838380912D043D
S113192090912E04892B71F4F0932E04E0932D04EE
S113193080912F0490913004892B21F4F09330048A
S1131940E0932F04CF01DF91CF911F910F91089560
S1131950A0E0B0E0EEEAFCE00C94ED10FE01359658
S113196061917191AF0180912D0490912E040E9498
S1131970E90CE2E00C9409110F931F93CF93DF93CA
S1131980E0912D04F0912E04238121FF1BC0EC0172
S113199000E010E0899160912D0470912E04DB0128
S11319A01896ED91FC911997882331F00995892BAC
S11319B089F30FEF1FEFEECF8AE00995892B11F41D
S11319C0C80102C08FEF9FEFDF91CF911F910F915C
S11319D00895ACE0B0E0EFEEFCE00C94DD107C0187
S11319E06B018A01FC0117821682838181FFBDC1CC
S11319F0CE0101964C01F7019381F60193FD859187
S1131A0093FF81916F01882309F4ABC1853239F4C6
S1131A1093FD859193FF81916F01853229F4B7017C
S1131A2090E00E941B10E7CF512C312C20E0203293
S1131A30A0F48B3269F030F4803259F0833269F4C7
S1131A4020612CC08D3239F0803339F4216026C0F6
S1131A502260246023C0286021C027FD27C030ED08
S1131A60380F3A3078F426FF06C0FAE05F9E300D56
S1131A701124532E13C08AE0389E300D1124332EC6
S1131A8020620CC08E3221F426FD6BC1206406C096
S1131A908C3611F4206802C0883641F4F60193FDB7
S1131AA0859193FF81916F018111C1CF982F9F7D03
S1131AB09554933028F40C5F1F4FFFE3F9830DC056
S1131AC0833631F0833771F0833509F05BC022C06F
S1131AD0F801808189830E5F1F4F44244394512C65
S1131AE0540115C03801F2E06F0E711CF801A0809A
S1131AF0B18026FF03C0652D70E002C06FEF7FEF59
S1131B00C5012C870E9410102C0183012C852F778E
S1131B10222E17C03801F2E06F0E711CF801A0806C
S1131B20B18026FF03C0652D70E002C06FEF7FEF28
S1131B30C5012C870E94FE0F2C012C852068222EC3
S1131B40830123FC1BC0832D90E048165906B0F492
S1131B50B70180E290E00E941B103A94F4CFF501A3
S1131B6027FC859127FE81915F01B70190E00E94D7
S1131B701B1031103A94F1E04F1A510841145104EA
S1131B8071F7E5C0843611F0893639F5F80127FF7D
S1131B9007C060817181828193810C5F1F4F08C0EF
S1131BA060817181882777FD8095982F0E5F1F4F84
S1131BB02F76B22E97FF09C0909580957095619508
S1131BC07F4F8F4F9F4F2068B22E2AE030E0A40150
S1131BD00E944D10A82EA81844C0853729F42F7EE2
S1131BE0B22E2AE030E025C0F22FF97FBF2E8F36C7
S1131BF0C1F018F4883579F0B4C0803719F088370B
S1131C0021F0AFC02F2F2061B22EB4FE0DC08B2D5A
S1131C108460B82E09C024FF0AC09F2F9660B92E95
S1131C2006C028E030E005C020E130E002C020E139
S1131C3032E0F801B7FE07C060817181828193812F
S1131C400C5F1F4F06C06081718180E090E00E5FE1
S1131C501F4FA4010E944D10A82EA818FB2DFF773A
S1131C60BF2EB6FE0BC02B2D2E7FA51450F4B4FE50
S1131C700AC0B2FC08C02B2D2E7E05C07A2C2B2D59
S1131C8003C07A2C01C0752C24FF0DC0FE01EA0D9F
S1131C90F11D8081803311F4297E09C022FF06C022
S1131CA07394739404C0822F867809F0739423FD8F
S1131CB013C020FF06C05A2C731418F4530C571881
S1131CC0732C731468F4B70180E290E02C870E94AF
S1131CD01B1073942C85F5CF731410F4371801C0BE
S1131CE0312C24FF12C0B70180E390E02C870E94BE
S1131CF01B102C8522FF17C021FF03C088E590E04C
S1131D0002C088E790E0B7010CC0822F867859F0B2
S1131D1021FD02C080E201C08BE227FD8DE2B70104
S1131D2090E00E941B10A51438F4B70180E390E002
S1131D300E941B105A94F7CFAA94F401EA0DF11DE6
S1131D408081B70190E00E941B10A110F5CF3320D1
S1131D5009F451CEB70180E290E00E941B103A943E
S1131D60F6CFF7018681978102C08FEF9FEF2C9603
S1131D70E2E10C94F9100F931F93CF93DF93869FA6
S1131D808001879F100D969F100D1124C8010E9499
S1131D90D70EEC01009729F0A80160E070E00E94E2
S1131DA00910CE01DF91CF911F910F910895CF9328
S1131DB0DF938230910510F482E090E0E0913304E7
S1131DC0F091340420E030E0A0E0B0E0309739F145
S1131DD04081518148175907B8F04817590771F4E1
S1131DE082819381109729F013969C938E93129776
S1131DF02CC0909334048093330427C021153105FB
S1131E0031F04217530718F0A901DB0101C0EF01BB
S1131E109A01BD01DF010280F381E02DD7CF2115A6
S1131E203105F9F0281B390B2430310580F48A81FF
S1131E309B816115710521F0FB019383828304C0AA
S1131E409093340480933304FE01329644C0FE011F
S1131E50E20FF31F81939193225031093983288330
S1131E603AC02091310430913204232B41F4209163
S1131E7006013091070130933204209331042091FC
S1131E800401309105012115310541F42DB73EB708
S1131E904091080150910901241B350BE091310454
S1131EA0F0913204E217F307A0F42E1B3F0B28171E
S1131EB0390778F0AC014E5F5F4F2417350748F0BF
S1131EC04E0F5F1F509332044093310481939193DA
S1131ED002C0E0E0F0E0CF01DF91CF910895CF930D
S1131EE0DF93009709F487C0FC01329713821282B2
S1131EF0C0913304D0913404209781F4208131813E
S1131F00280F391F8091310490913204821793076E
S1131F1079F5F0933204E09331046DC0DE0120E0E2
S1131F2030E0AE17BF0750F412964D915C911397B1
S1131F309D014115510509F1DA01F3CFB383A28361
S1131F4040815181840F951F8A179B0771F48D91ED
S1131F509C911197840F951F02969183808312960A
S1131F608D919C911397938382832115310529F4D4
S1131F70F0933404E09333043EC0D9011396FC93E8
S1131F80EE9312974D915D91A40FB51FEA17FB07CD
S1131F9079F480819181840F951F0296D90111965D
S1131FA09C938E938281938113969C938E93129724
S1131FB0E0E0F0E08A819B81009719F0FE01EC01DA
S1131FC0F9CFCE01029628813981820F931F209187
S1131FD03104309132042817390769F4309729F411
S1131FE0109234041092330402C013821282D093EC
S1131FF03204C0933104DF91CF910895FC01059020
S1132000615070400110D8F7809590958E0F9F1FF6
S11320100895DC0101C06D9341505040E0F70895EC
S1132020FC016150704001900110D8F780959095A3
S11320308E0F9F1F08950F931F93CF93DF93182F35
S1132040092FEB018B8181FD03C08FEF9FEF20C02F
S113205082FF10C04E815F812C813D81421753075E
S11320607CF4E881F9819F012F5F3F4F39832883F6
S1132070108306C0E885F985812F0995892B29F7F6
S11320802E813F812F5F3F4F3F832E83812F902FDF
S1132090DF91CF911F910F910895FA01AA2728305B
S11320A051F1203181F1E8946F936E7F6E5F7F4F21
S11320B08F4F9F4FAF4FB1E03ED0B4E03CD0670F9D
S11320C0781F891F9A1FA11D680F791F8A1F911DF0
S11320D0A11D6A0F711D811D911DA11D20D009F440
S11320E068943F912AE0269F11243019305D319382
S11320F0DEF6CF010895462F4770405D4193B3E06B
S11321000FD0C9F7F6CF462F4F70405D4A3318F011
S1132110495D31FD4052419302D0A9F7EACFB4E0C2
S1132120A6959795879577956795BA95C9F700977A
S11321306105710508959B01AC010A2E069457951B
S1132140479537952795BA95C9F7620F731F841F72
S1132150951FA01D0895052E97FB1EF400940E9460
S1132160C21057FD07D00E94141107FC03D04EF48F
S11321700C94C21050954095309521953F4F4F4F88
S11321805F4F089590958095709561957F4F8F4F1F
S11321909F4F08950E943611A59F900DB49F900DF6
S11321A0A49F800D911D11240895B7FF0C94CA10AB
S11321B00E94CA10821B930B08952F923F924F9254
S11321C05F926F927F928F929F92AF92BF92CF92C3
S11321D0DF92EF92FF920F931F93CF93DF93CDB7CC
S11321E0DEB7CA1BDB0B0FB6F894DEBF0FBECDBF44
S11321F009942A88398848885F846E847D848C8415
S11322009B84AA84B984C884DF80EE80FD800C811D
S11322101B81AA81B981CE0FD11D0FB6F894DEBF00
S11322200FBECDBFED010895A1E21A2EAA1BBB1B60
S1132230FD010DC0AA1FBB1FEE1FFF1FA217B3078E
S1132240E407F50720F0A21BB30BE40BF50B661FA4
S1132250771F881F991F1A9469F760957095809568
S113226090959B01AC01BD01CF010895A29FB001DF
S1132270B39FC001A39F700D811D1124911DB29FB6
S1112280700D811D1124911D0895F894FFCF57
S113228E01000000000035042000001800120010A8
S113229E526967687420627574746F6E207072650B
S11322AE737365642C207072696E74696E67207620
S11322BE616C7565733A090900583A202569095904
S11322CE3A202569094C3A20256909523A20256994
S11322DE0A004C65667420427574746F6E205072D9
S11322EE65737365640043616C6962726174696FCE
S11322FE6E2076616C7565733A200963616C5F5864
S113230E3A2025690963616C5F593A25690A0052BE
S113231E65666572656E63652056616C7565733AA4
S113232E2009582025690959202569094C20256959
S113233E0952202569090A005374617274696E6723
S113234E205352414D20746573742E2E2E005772F5
S113235E697465207068617365206572726F723A74
S113236E206578745F72616D5B2534645D203D2059
S113237E25303258202873686F756C64206265208E
S113238E25303258290A0052657472696576616C7B
S113239E207068617365206572726F723A20657879
S11323AE745F72616D5B2534645D203D202530328F
S11323BE58202873686F756C64206265202530324E
S11323CE58290A005352414D207465737420636F6B
S11323DE6D706C6574656420776974680A2534645D
S11323EE206572726F727320696E207772697465DC
S11323FE20706861736520616E640A2534642065FB
S113240E72726F727309696E207265747269657681
S113241E616C2070686173650A0A0032313A303299
S113242E3A3036004F637420203320323031370077
S113243E6C346432004C4F4144494E472067313767
S113244E5F25732025732025730A494E495449414B
S113245E4C495A494E472E2E2E0A0A5541525420A3
S113246E7375636365737366756C6C7920696E69D5
S113247E7469616C697A65640A0A004F4C4544209C
S113248E7375636365737366756C6C7920696E69B5
S113249E7469616C697A656400636F6E74726F6CD3
S11324AE20696E70757420737563636573736675D6
S11324BE6C6C7920696E697469616C697A65640AF9
S11324CE005352414D207375636365737366756C67
S11324DE6C7920696E697469616C697A6564004906
S11324EE6E7465727275707473207375636365733D
S11324FE7366756C6C7920696E697469616C697A3E
S113250E656400496E7465727275707473206163CC
S113251E74697661746564000A494E495449414CA4
S113252E495A4154494F4E20434F4D504C45544502
S113253E00484920746865726521007465737400DF
S9030000FC
