:100000000C94E4010C943F020C949B020C940102AA
:100010000C9401020C9401020C9401020C94010254
:100020000C9401020C9401020C9401020C94010244
:100030000C9401020C9401020C9401020C94010234
:100040000C9401020C9401020C9401020C94010224
:100050000C9401020C9401020C9401020C94010214
:100060000C9401020C9401020C9401020C94010204
:10007000436F6E7472617374006F707432006F70CE
:100080007431006F70743000370036003500340072
:1000900033003200310030004465627567004F70F4
:1000A00074696F6E73004C6561646572626F617232
:1000B00064005374617274000000000000000000CE
:1000C00000065F5F0600000000070700070700004A
:1000D000147F7F147F7F1400242E6B6B3A12000074
:1000E000466630180C666200307A4F5D377A4800F9
:1000F0000407030000000000001C3E6341000000F4
:100100000041633E1C000000082A3E1C1C3E2A08D9
:1001100008083E3E0808000000A0E0600000000063
:1001200008080808080800000000606000000000DF
:100130006030180C060301003E7F594D7F3E0000E1
:1001400042427F7F40400000627359496F66000061
:10015000226349497F360000181C16137F7F100068
:10016000276745457D3900003C7E4B4979300000CA
:10017000036371190F070000367F49497F3600007D
:10018000064F49693F1E000000006C6C0000000033
:1001900000A0EC6C00000000081C36634100000069
:1001A0001414141414140000004163361C080000D9
:1001B000020351590F0600003E7F415D5D1F1E0086
:1001C0007C7E13137E7C0000417F7F49497F36008F
:1001D0001C3E634141632200417F7F41637F1C00DD
:1001E000417F7F495D416300417F7F491D010300DD
:1001F0001C3E6341517372007F7F08087F7F0000BF
:1002000000417F7F41000000307040417F3F01008E
:10021000417F7F081C776300417F7F414060700011
:100220007F7F060C067F7F007F7F060C187F7F0094
:100230001C3E6341633E1C00417F7F49090F06005D
:100240001E3F21717F5E0000417F7F19396F46009C
:1002500026674D597B32000003417F7F4103000038
:100260007F7F40407F7F00001F3F60603F1F000096
:100270007F7F3018307F7F0063771C081C77630016
:10028000074F78784F0700006773594D4763710037
:10029000007F7F41410000000103060C1830600020
:1002A0000041417F7F000000080C0603060C080097
:1002B0008080808080808080000003070400000030
:1002C000207454543C784000413F7F44447C3800C3
:1002D000387C44446C280000307848493F7F400017
:1002E000387C54545C180000487E7F4903020000AB
:1002F00098BCA4A4F87C0400417F7F08047C7800AB
:1003000000447D7D4000000040C484FD7D0000006D
:10031000417F7F10386C440000417F7F4000000027
:100320007C7C0C180C7C78007C7C04047C780000BD
:10033000387C44447C38000084FCF8A4243C180039
:10034000183C24A4F8FC8400447C78441C18000069
:10035000485C54547424000000043E7F4424000090
:100360003C7C40403C7C40001C3C60603C1C0000ED
:100370003C7C6030607C3C00446C3810386C44003D
:100380009CBCA0A0FC7C00004C64745C4C6400002D
:1003900008083E7741410000000000777700000028
:1003A0004141773E080800000203010302030100F7
:1003B0006686B07070B08666FF818181818181FF21
:1003C000FF8191A1998581FF11241FBECFEFD4E059
:1003D000DEBFCDBF14E0A0E0B1E0E8E0F2E202C091
:1003E00005900D92AA31B107D9F724E0AAE1B4E053
:1003F00001C01D92AA34B207E1F70E9487050C9450
:1004000002110C9400008230910571F01CF40197E8
:1004100039F01CC08330910559F0049769F016C07B
:1004200084E1809300140BC085E18093001407C021
:1004300086E18093001403C087E18093001482E575
:100440008A95F1F78091001490E0089580E090E0A3
:100450000895BA9ABB9A85B7816085BF85B78260D7
:1004600085BF85B7846085BF85B7886085BF8BB73A
:1004700080648BBF8BB780688BBF789408951F9280
:100480000F920FB60F921124EF92FF920F931F93CA
:100490002F933F934F935F936F937F938F939F938C
:1004A000AF93BF93CF93DF93EF93FF938EE091E0F1
:1004B0009F938F930E948C0D82E50E94BE03F82EBD
:1004C000E92E8CE40E94BE03182F092F89E50E94B3
:1004D000BE03C82FD92F88E50E94BE03EF92FF927A
:1004E0000F931F93DF93CF939F938F9387E391E0B5
:1004F0009F938F930E948C0D8DB79EB70C960FB66D
:10050000F8949EBF0FBE8DBFFF91EF91DF91CF9109
:10051000BF91AF919F918F917F916F915F914F911B
:100520003F912F911F910F91FF90EF900F900FBE71
:100530000F901F9018951F920F920FB60F921124D3
:100540002F933F934F935F936F937F938F939F93DB
:10055000AF93BF93EF93FF9380E591E00E94A00DCE
:10056000FF91EF91BF91AF919F918F917F916F918B
:100570005F914F913F912F910F900FBE0F901F9061
:1005800018950F931F93CF93DF93C4E6D0E00091AB
:1005900024041091250481E090E00E940302015898
:1005A0001F4F081B190B109325040093240400917E
:1005B00022041091230482E090E00E94030201587B
:1005C0001F4F081B190B109323040093220421973B
:1005D0002097E9F6809124049091250424E630E0E8
:1005E000B9010E948D0B70932504609324048091BF
:1005F000220490912304B9010E948D0B709323046F
:1006000060932204DF91CF911F910F9108952F9253
:100610003F924F925F926F927F928F929F92AF9292
:10062000BF92CF92DF92EF92FF920F931F93CF93DF
:10063000DF9300D000D000D0CDB7DEB73C017A8385
:1006400069835C834B833E832D8318018501B90147
:10065000882777FD8095982F0E949E0A4B015C01A8
:10066000B3016E0D7F1D29813A81621B730B8827B0
:1006700077FD8095982F0E949E0A2B013C01B101C5
:100680008D819E81681B790B882777FD8095982F37
:100690000E949E0A9B01AC01C301B2010E942A0B79
:1006A0002B013C016B817C81E981FA816E1B7F0B00
:1006B000882777FD8095982F0E949E0A9B01AC01A8
:1006C000C301B2010E94030A9B01AC01C501B40140
:1006D0000E949F090E946B0AC101801B910B681741
:1006E000790774F58D819E81800F911F861797077A
:1006F0004CF5F80111230CF43196F595E795D801E6
:1007000012C08A0F9B1FAC014E0F5F1F6417750745
:1007100014F069010BC0C6018E1B9F0B861797074B
:1007200014F0C01AD10AC601801B910B9601200F4C
:10073000311F621773072CF78617970714F704C049
:10074000610102C0CD80DE80C60126960FB6F89406
:10075000DEBF0FBECDBFDF91CF911F910F91FF90F4
:10076000EF90DF90CF90BF90AF909F908F907F9051
:100770006F905F904F903F902F900895AF92BF92EF
:10078000CF92DF92EF92FF920F931F93823509F47D
:1007900074C020F48C3409F44EC091C0883519F02F
:1007A000893529F18CC0C0902004D0902104E090BC
:1007B0002404F090250481E090E00E9403020F2EB3
:1007C000FAE0AF2EB12CF02D04E610E02CE93FEF5B
:1007D0004FEF50E060E070E00E9407039093210427
:1007E0008093200480912004909121046AC0C090DD
:1007F0001E04D0901F04E0902204F090230482E0B5
:1008000090E00E9403020F2EFAE0AF2EB12CF02DE3
:1008100004E610E02CE93FEF4FEF50E060E070E0BD
:100820000E94070390931F0480931E0480911E046E
:1008300090911F0446C0C0901C04D0901D0483E01A
:1008400090E00E9403020F2EFAE0AF2EB12CF02DA3
:10085000E12CF12C04E610E020E030E04FEF50E016
:1008600060E070E00E94070390931D0480931C04D5
:1008700080911C0490911D0424C0C0901A04D09053
:100880001B0484E090E00E9403020F2EFAE0AF2EDA
:10089000B12CF02DE12CF12C04E610E020E030E04A
:1008A0004FEF50E060E070E00E94070390931B045C
:1008B00080931A0480911A0490911B0402C080E076
:1008C00090E01F910F91FF90EF90DF90CF90BF903D
:1008D000AF9008950E94C10288E50E94BE039093E4
:1008E00021048093200489E50E94BE0390931F0495
:1008F00080931E048CE40E94BE0390931D04809399
:100900001C0482E50E94BE0390931B0480931A048A
:100910002091220430912304809124049091250495
:100920003F932F939F938F9384E691E09F938F93B0
:100930000E948C0D60911A0470911B0440911C045C
:1009400050911D0420911E0430911F0480912004B9
:10095000909121047F936F935F934F933F932F93D5
:100960009F938F938DE891E09F938F930E948C0DBE
:100970008DB79EB740960FB6F8949EBF0FBE8DBF41
:100980000895CF92DF92EF92FF920F931F93CF9330
:10099000DF9386EB91E00E94A00D0E942A0D6C016E
:1009A0000E942F0DC0E0D0E000E010E00F2EFCEC24
:1009B000EF2EF1E0FF2EF02D0E942A0DFE01F85ED1
:1009C000808320812817A9F099279F938F931F92E6
:1009D0002F93DF93CF93FF92EF920E948C0D0F5FC6
:1009E0001F4F8DB79EB708960FB6F8949EBF0FBEE7
:1009F0008DBF2196C11598E0D907F1F6C6010E9476
:100A00002F0DC0E0D0E0E12CF12C0F2EF5E0CF2E21
:100A1000F2E0DF2EF02D0E942A0DFE01F85E20810B
:100A20002817B1F099279F938F931F922F93DF93ED
:100A3000CF93DF92CF920E948C0D8FEFE81AF80AC5
:100A40008DB79EB708960FB6F8949EBF0FBE8DBFA8
:100A50002196C11598E0D907F1F6FF92EF921F9306
:100A60000F9382E492E09F938F930E948C0D0F90DE
:100A70000F900F900F900F900F90DF91CF911F91DB
:100A80000F91FF90EF90DF90CF9008958FE190E06D
:100A90000E94930989E992E09F938F9382EA92E002
:100AA0009F938F938EEA92E09F938F9383EB92E0D4
:100AB0009F938F930E948C0D85B7806885BF80B708
:100AC000806280BF0E9496050E946A0489EF92E0CE
:100AD0000E94A00D0E94C10481E293E00E94A00D3B
:100AE0000E9429028FE393E00E94A00D83E693E029
:100AF0000E94A00D88E793E00E94A00D8DB79EB7DD
:100B000008960FB6F8949EBF0FBE8DBF08950E9441
:100B100046050E9460080E944B090E94960589E9DB
:100B200092E00E947F090E942308FDCF2F923F92FE
:100B30004F925F926F927F928F929F92AF92BF92ED
:100B4000CF92DF92EF92FF920F931F93CF93DF9399
:100B5000CDB7DEB768970FB6F894DEBF0FBECDBF36
:100B60008CE090E00E94B50B6C018CE090E00E945C
:100B7000B50B4C018CE090E00E94B50B5C018CE061
:100B800090E00E94B50B9A8389838CE090E00E94EC
:100B9000B50B9C838B838CE090E00E94B50B3C01ED
:100BA0008CE090E00E94B50B1C018CE090E00E946C
:100BB000B50B9E838D838CE090E00E94B50B7C0189
:100BC0008CE090E00E94B50B98878F838CE090E0DA
:100BD0000E94B50B9A8789878CE090E00E94B50B44
:100BE0009C878B878CE090E00E94B50B2C018CE0F9
:100BF00090E00E94B50B9E878D878CE090E00E946C
:100C0000B50B988B8F878CE090E00E94B50B9A8B88
:100C1000898B8CE090E00E94B50B9C8B8B8B8CE0D9
:100C200090E00E94B50B9E8B8D8B8CE090E00E9433
:100C3000B50B8C018CE090E00E94B50B988F8F8BE8
:100C400086E990E0D60111969C938E93ED81FE810A
:100C50001596FC93EE93149717969C928E92169786
:100C600019961C921E9218972D893E891B963C93CB
:100C70002E931A9788E090E013969C938E93129788
:100C800024E930E0D40111963C932E931596DC9222
:100C9000CE9214971796BC92AE92169719961C9204
:100CA0001E921897ED89FE891B96FC93EE931A9776
:100CB00013969C938E93129722E930E0D5011196FA
:100CC0003C932E9315969C928E921497E981FA810B
:100CD0001796FC93EE93169719961C921E921897EE
:100CE0002D893E891B963C932E931A9713969C93BD
:100CF0008E93129720E930E031832083B582A4825D
:100D0000AB80BC80B782A68211861086AD88BE8873
:100D1000B386A286938382832EE830E0AB81BC81C8
:100D200011963C932E931596FC93EE931497179679
:100D30007C926E92169719961C921E9218971B968B
:100D4000BC92AE921A9713969C938E9312972CE8AE
:100D500030E0F30131832083B583A4833782268278
:100D600011861086B386A286938382832AE830E0B8
:100D7000D10111963C932E9315967C926E92149706
:100D8000AD80BE801796BC92AE92169719961C92B3
:100D90001E921897AD88BE881B96BC92AE921A9789
:100DA00013969C938E93129728E830E0AD81BE8114
:100DB00011963C932E9315963C922E92149717966B
:100DC000DC92CE92169719961C921E9218971B963B
:100DD000BC92AE921A9713969C938E93129763E8E7
:100DE00070E0F70171836083AB84BC84B582A48218
:100DF000AF80B884B782A6821186108613870287D7
:100E000084E090E0938382834EE750E0D501119611
:100E10005C934E931596FC92EE921497A984BA8433
:100E20001796BC92AE92169719961C921E9218971E
:100E30001B961C930E931A9713969C938E9312975E
:100E400029E730E0D50111963C932E93AF80B8840A
:100E50001596BC92AE921497AB84BC841796BC9244
:100E6000AE92169719961C921E9218971B961C9379
:100E70000E931A9713969C938E931297A0E7B0E067
:100E8000F501B183A083A984BA84B582A482F782D4
:100E9000E682118610861387028793838283F2018C
:100EA00071836083A988BA88B582A482AD84BE8428
:100EB000B782A682118610866F89788D73876287C4
:100EC00093838283F5015183408355824482AF84AA
:100ED000B888B782A682118610867387628793834B
:100EE0008283F50131832083AD84BE84B582A482E0
:100EF000A988BA88B782A68211861086738762870E
:100F000093838283F501B183A083AF84B888B582CF
:100F1000A4825782468211861086738762879383E4
:100F2000828322EB30E0AB89BC8911963C932E93EF
:100F300015967C936E931497AD88BE881796BC92D5
:100F4000AE92169719961C921E9218971B961C9299
:100F50001E921A9713969C938E93129726EA30E06E
:100F6000D50111963C932E93AB88BC881596BC9204
:100F7000AE92149717961C930E9316971996DC92BF
:100F8000CE9218971B961C921E921A9713969C93BA
:100F90008E9312972EE930E0D80111963C932E9350
:100FA000AD88BE881596BC92AE92149717967C9326
:100FB0006E9316971996FC92EE9218971B961C92B8
:100FC0001E921A9713969C938E93129728E930E0FD
:100FD000DB0111963C932E9315961C930E93149758
:100FE000AB88BC881796BC92AE92169719965C9205
:100FF0004E9218971B961C921E921A9713969C93CA
:101000008E931297509227044092260450922904FE
:101010004092280468960FB6F894DEBF0FBECDBF8D
:10102000DF91CF911F910F91FF90EF90DF90CF90C4
:10103000BF90AF909F908F907F906F905F904F90F8
:101040003F902F90089510923B0410923A04E09143
:101050002604F0912704608171818AE294E00E9465
:101060003A0D80913A0490913B040E941F098AE254
:1010700094E00E947F0920912804309129048091F6
:101080002604909127042817390721F481E993E079
:101090000E947F09E0912604F091270486819781C0
:1010A000909327048093260480913A0490913B0406
:1010B000019690933B0480933A04049744F2089578
:1010C00085B7806885BF80B7806280BFE0910C01E2
:1010D000F0910D018EEA8083E0910C01F0910D01F9
:1010E00081EA8083E0910C01F0910D018AED80830B
:1010F000E0910C01F0910D0182E18083E0910C01FF
:10110000F0910D0188EC8083E0910C01F0910D01CC
:1011100088EA8083E0910C01F0910D018FE38083D8
:10112000E0910C01F0910D0185ED8083E0910C01BF
:10113000F0910D0180E88083E0910C01F0910D01A8
:1011400081E88083E0910C01F0910D0180E58083BE
:10115000E0910C01F0910D0189ED8083E0910C018B
:10116000F0910D0181E28083E0910C01F0910D017D
:1011700080E28083E0910C01F0910D011082E091FA
:101180000C01F0910D018BED8083E0910C01F09149
:101190000D0180E38083E0910C01F0910D018DEA57
:1011A0008083E0910C01F0910D011082E0910C011F
:1011B000F0910D0184EA8083E0910C01F0910D0122
:1011C00086EA8083E0910C01F0910D018FEA808323
:1011D000089510923F0410923E0410923D04109224
:1011E0003C04E0910C01F0910D0181E28083E091DB
:1011F0000C01F0910D011082E0910C01F0910D01B4
:101200008FE78083E0910C01F0910D0182E28083F1
:10121000E0910C01F0910D011082E0910C01F09130
:101220000D0187E08083E0910C01F0910D011082A7
:10123000E0910C01F0910D0180E1808308958830E8
:10124000910528F085E993E00E94A00D0895E091B2
:101250000C01F0910D011082E0910C01F0910D0153
:1012600090E19083806BE0910C01F0910D018083FF
:101270000895089758F480E890E0E0910A01F09111
:101280000B01108201970097C1F708958BED93E051
:101290000E94A00D0895CF93DF930E94E90880E09B
:1012A00090E00E941F09C0E0D0E0CE010E94390901
:1012B0002196C830D105C9F7DF91CF9108958823D1
:1012C000C1F0E82FF0E0EE0FFF1FEE0FFF1FEE0F53
:1012D000FF1FE854F04080E090E0A0910A01B09137
:1012E0000B0124912C930196319688309105A9F732
:1012F00003C080E090E0089581E090E00895CF93EE
:10130000DF93EC0189910E945F09892BD9F7DF9166
:10131000CF9108955D9BFECF8CB908955F9BFECF62
:101320008CB190E0089590BD89B988E18AB96EE8E2
:1013300079E08AE899E00E94410D08955058BB2752
:10134000AA270ED04DC13ED130F043D120F031F468
:101350009F3F11F41EF433C10EF4E095E7FB29C161
:10136000E92F4FD180F3BA176207730784079507F7
:1013700018F071F49EF567C10EF4E0950B2EBA2FAC
:10138000A02D0B01B90190010C01CA01A00111248B
:10139000FF27591B99F0593F50F4503E68F11A1637
:1013A000F040A22F232F342F4427585FF3CF4695C8
:1013B00037952795A795F0405395C9F77EF41F16EA
:1013C000BA0B620B730B840BBAF09150A1F0FF0FB4
:1013D000BB1F661F771F881FC2F70EC0BA0F621FA0
:1013E000731F841F48F4879577956795B795F79590
:1013F0009E3F08F0B3CF9395880F08F09927EE0F22
:101400009795879508950CD0EBC0E3D040F0DAD0E3
:1014100030F021F45F3F19F0CCC0511115C1CFC09D
:10142000F0D098F39923C9F35523B1F3951B550BCD
:10143000BB27AA2762177307840738F09F5F5F4FA7
:10144000220F331F441FAA1FA9F333D00E2E3AF0E8
:10145000E0E830D091505040E695001CCAF729D002
:10146000FE2F27D0660F771F881FBB1F2617370751
:101470004807AB07B0E809F0BB0B802DBF01FF2781
:1014800093585F4F2AF09E3F510568F092C0DCC030
:101490005F3FECF3983EDCF3869577956795B795BB
:1014A000F7959F5FC9F7880F911D9695879597F9D6
:1014B0000895E1E0660F771F881FBB1F621773074F
:1014C0008407BA0720F0621B730B840BBA0BEE1F64
:1014D00088F7E095089504D06894B111B5C00895D7
:1014E00098D088F09F5790F0B92F9927B751A0F066
:1014F000D1F0660F771F881F991F1AF0BA95C9F7A8
:1015000012C0B13081F09FD0B1E008959CC0672F28
:10151000782F8827B85F39F0B93FCCF38695779557
:101520006795B395D9F73EF4909580957095619540
:101530007F4F8F4F9F4F0895E89409C097FB3EF46B
:1015400090958095709561957F4F8F4F9F4F992310
:10155000A9F0F92F96E9BB279395F695879577958E
:101560006795B795F111F8CFFAF4BB0F11F460FF4E
:101570001BC06F5F7F4F8F4F9F4F16C0882311F0A6
:1015800096E911C0772321F09EE8872F762F05C0BA
:10159000662371F096E8862F70E060E02AF09A9555
:1015A000660F771F881FDAF7880F9695879597F94A
:1015B000089597F99F6780E870E060E008959FEFD5
:1015C00080EC089500240A941616170618060906DA
:1015D000089500240A9412161306140605060895A9
:1015E000092E0394000C11F4882352F0BB0F40F431
:1015F000BF2B11F460FF04C06F5F7F4F8F4F9F4F71
:10160000089557FD9058440F551F59F05F3F71F0F2
:101610004795880F97FB991F61F09F3F79F0879559
:101620000895121613061406551FF2CF4695F1DFE2
:1016300008C0161617061806991FF1CF8695710572
:10164000610508940895E894BB2766277727CB01A6
:1016500097F908950BD0C4CFB5DF28F0BADF18F0A2
:10166000952309F0A6CFABCF1124EECFCADFA0F3AC
:10167000959FD1F3950F50E0551F629FF001729F27
:10168000BB27F00DB11D639FAA27F00DB11DAA1F46
:10169000649F6627B00DA11D661F829F2227B00D93
:1016A000A11D621F739FB00DA11D621F839FA00D1E
:1016B000611D221F749F3327A00D611D231F849F6E
:1016C000600D211D822F762F6A2F11249F575040C5
:1016D0008AF0E1F088234AF0EE0FFF1FBB1F661F60
:1016E000771F881F91505040A9F79E3F510570F019
:1016F00060CFAACF5F3FECF3983EDCF386957795F9
:101700006795B795F795E7959F5FC1F7FE2B880F13
:10171000911D9695879597F9089597FB072E16F4D6
:10172000009407D077FD09D00E94A10B07FC05D0DB
:101730003EF4909581959F4F0895709561957F4FE8
:101740000895AA1BBB1B51E107C0AA1FBB1FA61708
:10175000B70710F0A61BB70B881F991F5A95A9F75A
:1017600080959095BC01CD010895CF93DF93823091
:10177000910510F482E090E0E0914204F09143047E
:1017800020E030E0A0E0B0E0309739F140815181B5
:1017900048175907B8F04817590771F482819381A7
:1017A000109729F013969C938E9312972CC09093C8
:1017B00043048093420427C02115310531F04217BC
:1017C000530718F0A901DB0101C0EF019A01BD0127
:1017D000DF010280F381E02DD7CF21153105F9F02B
:1017E000281B390B2430310580F48A819B816115D7
:1017F000710521F0FB019383828304C0909343041D
:1018000080934204FE01329644C0FE01E20FF31FB2
:101810008193919322503109398328833AC02091D2
:10182000400430914104232B41F420910201309176
:101830000301309341042093400420910001309132
:1018400001012115310541F42DB73EB74091040146
:1018500050910501241B350BE0914004F0914104A7
:10186000E217F307A0F42E1B3F0B2817390778F077
:10187000AC014E5F5F4F2417350748F04E0F5F1FD6
:1018800050934104409340048193919302C0E0E05F
:10189000F0E0CF01DF91CF910895CF93DF930097D0
:1018A00009F487C0FC01329713821282C09142046E
:1018B000D0914304209781F420813181280F391F72
:1018C00080914004909141048217930779F5F09339
:1018D0004104E09340046DC0DE0120E030E0AE172B
:1018E000BF0750F412964D915C9113979D014115DD
:1018F000510509F1DA01F3CFB383A283408151810D
:10190000840F951F8A179B0771F48D919C911197F5
:10191000840F951F02969183808312968D919C91DE
:101920001397938382832115310529F4F09343049F
:10193000E09342043EC0D9011396FC93EE931297B4
:101940004D915D91A40FB51FEA17FB0779F48081D3
:101950009181840F951F0296D90111969C938E93C5
:101960008281938113969C938E931297E0E0F0E02E
:101970008A819B81009719F0FE01EC01F9CFCE011D
:10198000029628813981820F931F20914004309163
:1019900041042817390769F4309729F41092430459
:1019A0001092420402C013821282D0934104C09369
:1019B0004004DF91CF9108958F929F92AF92BF9292
:1019C000CF92DF92EF92FF92CF93DF93EC01688189
:1019D00079818A819B81611571058105910521F4C9
:1019E00064E279ED8BE597E02DE133EF41E050E0E3
:1019F0000E94681049015A019B01AC01A7EAB1E4B9
:101A00000E9487106B017C01ACEEB4EFA50194013C
:101A10000E949510C60ED71EE81EF91EF7FE06C0DE
:101A200081E0C81AD108E10880E8F80AC882D982A2
:101A3000EA82FB82C6019F77DF91CF91FF90EF9002
:101A4000DF90CF90BF90AF909F908F9008950E94AD
:101A5000DC0C089586E091E00E94DC0C0895A0E083
:101A6000B0E08093060190930701A0930801B09322
:101A700009010895FB01DC0105900D920020E1F7BA
:101A800008950F931F93CF93DF93EC018B01009781
:101A900031F46115710519F480E090E038C06EE012
:101AA00070E081E090E00E949F0FFC010097A1F39D
:101AB00080E883830115110571F01387028781E89F
:101AC00083838091440490914504892B21F4F09301
:101AD0004504E09344042097C9F0D187C0878381EF
:101AE000826083838091460490914704892B71F42E
:101AF000F0934704E0934604809148049091490490
:101B0000892B21F4F0934904E0934804CF01DF913D
:101B1000CF911F910F910895A0E0B0E0E2E9FDE0C0
:101B20000C94AA10FE01359661917191AF018091DC
:101B30004604909147040E94CD0DE2E00C94C6103B
:101B40000F931F93CF93DF93E0914604F0914704E6
:101B5000238121FF1BC0EC0100E010E0899160911E
:101B6000460470914704DB011896ED91FC9119979A
:101B7000882331F00995892B89F30FEF1FEFEECF02
:101B80008AE00995892B11F4C80102C08FEF9FEFFD
:101B9000DF91CF911F910F910895ACE0B0E0E3ED9C
:101BA000FDE00C949A107C016B018A01FC01178204
:101BB0001682838181FFBDC1CE0101964C01F701E0
:101BC0009381F60193FD859193FF81916F018823A5
:101BD00009F4ABC1853239F493FD859193FF81916E
:101BE0006F01853229F4B70190E00E94D80FE7CF4A
:101BF000512C312C20E02032A0F48B3269F030F4EB
:101C0000803259F0833269F420612CC08D3239F072
:101C1000803339F4216026C02260246023C028600C
:101C200021C027FD27C030ED380F3A3078F426FF69
:101C300006C0FAE05F9E300D1124532E13C08AE0D7
:101C4000389E300D1124332E20620CC08E3221F4C8
:101C500026FD6BC1206406C08C3611F4206802C0DA
:101C6000883641F4F60193FD859193FF81916F01D0
:101C70008111C1CF982F9F7D9554933028F40C5F2C
:101C80001F4FFFE3F9830DC0833631F0833771F0C6
:101C9000833509F05BC022C0F801808189830E5F23
:101CA0001F4F44244394512C540115C03801F2E0D5
:101CB0006F0E711CF801A080B18026FF03C0652D56
:101CC00070E002C06FEF7FEFC5012C870E94CD0F3F
:101CD0002C0183012C852F77222E17C03801F2E0CA
:101CE0006F0E711CF801A080B18026FF03C0652D26
:101CF00070E002C06FEF7FEFC5012C870E94BB0F21
:101D00002C012C852068222E830123FC1BC0832DEF
:101D100090E048165906B0F4B70180E290E00E94C6
:101D2000D80F3A94F4CFF50127FC859127FE8191D5
:101D30005F01B70190E00E94D80F31103A94F1E0B2
:101D40004F1A51084114510471F7E5C0843611F05F
:101D5000893639F5F80127FF07C0608171818281DA
:101D600093810C5F1F4F08C060817181882777FDC8
:101D70008095982F0E5F1F4F2F76B22E97FF09C0C8
:101D800090958095709561957F4F8F4F9F4F2068FC
:101D9000B22E2AE030E0A4010E940A10A82EA81852
:101DA00044C0853729F42F7EB22E2AE030E025C0CA
:101DB000F22FF97FBF2E8F36C1F018F4883579F0F5
:101DC000B4C0803719F0883721F0AFC02F2F2061C1
:101DD000B22EB4FE0DC08B2D8460B82E09C024FF36
:101DE0000AC09F2F9660B92E06C028E030E005C0DB
:101DF00020E130E002C020E132E0F801B7FE07C088
:101E000060817181828193810C5F1F4F06C0608168
:101E1000718180E090E00E5F1F4FA4010E940A10C4
:101E2000A82EA818FB2DFF77BF2EB6FE0BC02B2DBA
:101E30002E7FA51450F4B4FE0AC0B2FC08C02B2DAE
:101E40002E7E05C07A2C2B2D03C07A2C01C0752C58
:101E500024FF0DC0FE01EA0DF11D8081803311F4D5
:101E6000297E09C022FF06C07394739404C0822F98
:101E7000867809F0739423FD13C020FF06C05A2C06
:101E8000731418F4530C5718732C731468F4B701B7
:101E900080E290E02C870E94D80F73942C85F5CFB8
:101EA000731410F4371801C0312C24FF12C0B7018D
:101EB00080E390E02C870E94D80F2C8522FF17C06A
:101EC00021FF03C088E590E002C088E790E0B701F9
:101ED0000CC0822F867859F021FD02C080E201C03B
:101EE0008BE227FD8DE2B70190E00E94D80FA51488
:101EF00038F4B70180E390E00E94D80F5A94F7CFEE
:101F0000AA94F401EA0DF11D8081B70190E00E94CE
:101F1000D80FA110F5CF332009F451CEB70180E2DC
:101F200090E00E94D80F3A94F6CFF701868197810E
:101F300002C08FEF9FEF2C96E2E10C94B6100F9346
:101F40001F93CF93DF93869F8001879F100D969FED
:101F5000100D1124C8010E94B50BEC01009729F067
:101F6000A80160E070E00E94C60FCE01DF91CF9122
:101F70001F910F910895FC01059061507040011070
:101F8000D8F7809590958E0F9F1F0895DC0101C0B2
:101F90006D9341505040E0F70895FC01615070404E
:101FA00001900110D8F7809590958E0F9F1F08958E
:101FB0000F931F93CF93DF93182F092FEB018B8182
:101FC00081FD03C08FEF9FEF20C082FF10C04E81C4
:101FD0005F812C813D81421753077CF4E881F981B0
:101FE0009F012F5F3F4F39832883108306C0E88508
:101FF000F985812F0995892B29F72E813F812F5F44
:102000003F4F3F832E83812F902FDF91CF911F91E0
:102010000F910895FA01AA27283051F1203181F15A
:10202000E8946F936E7F6E5F7F4F8F4F9F4FAF4FE0
:10203000B1E03ED0B4E03CD0670F781F891F9A1FF3
:10204000A11D680F791F8A1F911DA11D6A0F711DA7
:10205000811D911DA11D20D009F468943F912AE0B3
:10206000269F11243019305D3193DEF6CF0108959B
:10207000462F4770405D4193B3E00FD0C9F7F6CFCC
:10208000462F4F70405D4A3318F0495D31FD405294
:10209000419302D0A9F7EACFB4E0A695979587952A
:1020A00077956795BA95C9F7009761057105089509
:1020B0009B01AC010A2E06945795479537952795B5
:1020C000BA95C9F7620F731F841F951FA01D08954D
:1020D000052E97FB1EF400940E947F1057FD07D039
:1020E0000E94D11007FC03D04EF40C947F10509541
:1020F0004095309521953F4F4F4F5F4F08959095F4
:102100008095709561957F4F8F4F9F4F08950E94E6
:10211000F310A59F900DB49F900DA49F800D911D6D
:1021200011240895B7FF0C9487100E948710821B1A
:10213000930B08952F923F924F925F926F927F92EE
:102140008F929F92AF92BF92CF92DF92EF92FF92C7
:102150000F931F93CF93DF93CDB7DEB7CA1BDB0B73
:102160000FB6F894DEBF0FBECDBF09942A88398818
:1021700048885F846E847D848C849B84AA84B9841F
:10218000C884DF80EE80FD800C811B81AA81B9812B
:10219000CE0FD11D0FB6F894DEBF0FBECDBFED013F
:1021A0000895A1E21A2EAA1BBB1BFD010DC0AA1F98
:1021B000BB1FEE1FFF1FA217B307E407F50720F0B0
:1021C000A21BB30BE40BF50B661F771F881F991F2B
:1021D0001A9469F760957095809590959B01AC0174
:1021E000BD01CF010895A29FB001B39FC001A39F7D
:1021F000700D811D1124911DB29F700D811D112440
:08220000911D0895F894FFCF31
:1022080000004A042000010000000012001052697A
:1022180067687420627574746F6E2070726573736A
:1022280065642C207072696E74696E672076616CC3
:102238007565733A090900583A20256909593A2001
:102248002569094C3A20256909523A2025690A006E
:102258004C65667420427574746F6E205072657395
:102268007365640043616C6962726174696F6E20A2
:1022780076616C7565733A200963616C5F583A2022
:1022880025690963616C5F593A25690A00526566D8
:102298006572656E63652056616C7565733A2009D1
:1022A800582025690959202569094C2025690952B2
:1022B800202569090A005374617274696E67205396
:1022C80052414D20746573742E2E2E005772697416
:1022D80065207068617365206572726F723A206557
:1022E80078745F72616D5B2534645D203D20253014
:1022F8003258202873686F756C6420626520253019
:102308003258290A0052657472696576616C2070CA
:1023180068617365206572726F723A206578745FC0
:1023280072616D5B2534645D203D20253032582074
:102338002873686F756C64206265202530325829CF
:102348000A005352414D207465737420636F6D7099
:102358006C6574656420776974680A25346420653F
:1023680072726F727320696E20777269746520705B
:102378006861736520616E640A2534642065727231
:102388006F727309696E2072657472696576616C23
:102398002070686173650A0A0032333A30353A337F
:1023A80036005365702032382032303137006C34B3
:1023B8006432004C4F4144494E47206731375F250E
:1023C800732025732025730A494E495449414C49C5
:1023D8005A494E472E2E2E0A0A55415254207375DB
:1023E800636365737366756C6C7920696E6974696B
:1023F800616C697A65640A0A00636F6E74726F6C47
:1024080020696E7075742073756363657373667580
:102418006C6C7920696E697469616C697A65640AA3
:10242800005352414D207375636365737366756C11
:102438006C7920696E697469616C697A65640049B0
:102448006E746572727570747320737563636573E7
:102458007366756C6C7920696E697469616C697AE8
:10246800656400496E746572727570747320616377
:1024780074697661746564000A494E495449414C4F
:10248800495A4154494F4E20434F4D504C455445AD
:1024980000203C2D00706172616D65746572207456
:1024A8006F6F206269672C206F6C65645F676F745B
:1024B8006F5F6C696E6500706172616D65746572DD
:1024C80020746F6F206269672C206F6C65645F678A
:1024D8006F746F5F636F6C756D6E00706172616DA4
:1024E8006574657220746F6F206269672C206F6C49
:1024F80065645F636C6561725F6C696E65007061CD
:1025080072616D6574657220746F6F206269672CE3
:0A251800206F6C65645F706F730044
:00000001FF
