:100000000C94F2010C944D020C94A9020C940F0272
:100010000C940F020C940F020C940F020C940F021C
:100020000C940F020C940F020C940F020C940F020C
:100030000C940F020C940F020C940F020C940F02FC
:100040000C940F020C940F020C940F020C940F02EC
:100050000C940F020C940F020C940F020C940F02DC
:100060000C940F020C940F020C940F020C940F02CC
:1000700043616C6962726174650000006669742096
:1000800073637265656E0000436F6E7472617374A2
:10009000000000004D75736963000000000000005F
:1000A0004F7074696F6E73000000000044656275E4
:1000B00067000000000000004869676873636F72A2
:1000C00065000000000000000000000000065F5F07
:1000D000060000000007070007070000147F7F14D8
:1000E0007F7F1400242E6B6B3A1200004666301896
:1000F0000C666200307A4F5D377A480004070300CF
:1001000000000000001C3E63410000000041633E0F
:100110001C000000082A3E1C1C3E2A0808083E3E1F
:100120000808000000A0E0600000000008080808BF
:100130000808000000006060000000006030180C3B
:10014000060301003E7F594D7F3E000042427F7F03
:1001500040400000627359496F66000022634949BC
:100160007F360000181C16137F7F10002767454557
:100170007D3900003C7E4B497930000003637119E2
:100180000F070000367F49497F360000064F496956
:100190003F1E000000006C6C0000000000A0EC6C32
:1001A00000000000081C3663410000001414141401
:1001B00014140000004163361C080000020351596A
:1001C0000F0600003E7F415D5D1F1E007C7E131305
:1001D0007E7C0000417F7F49497F36001C3E6341A1
:1001E00041632200417F7F41637F1C00417F7F4943
:1001F0005D416300417F7F491D0103001C3E634157
:10020000517372007F7F08087F7F000000417F7F6D
:1002100041000000307040417F3F0100417F7F0876
:100220001C776300417F7F41406070007F7F060C38
:10023000067F7F007F7F060C187F7F001C3E634196
:10024000633E1C00417F7F49090F06001E3F21715C
:100250007F5E0000417F7F19396F460026674D5948
:100260007B32000003417F7F410300007F7F4040DD
:100270007F7F00001F3F60603F1F00007F7F3018BE
:10028000307F7F0063771C081C776300074F787806
:100290004F0700006773594D47637100007F7F412E
:1002A000410000000103060C183060000041417F4E
:1002B0007F000000080C0603060C08008080808088
:1002C00080808080000003070400000020745454E4
:1002D0003C784000413F7F44447C3800387C4444B3
:1002E0006C280000307848493F7F4000387C5454E7
:1002F0005C180000487E7F490302000098BCA4A45B
:10030000F87C0400417F7F08047C780000447D7DF8
:100310004000000040C484FD7D000000417F7F104C
:10032000386C440000417F7F400000007C7C0C184A
:100330000C7C78007C7C04047C780000387C44448D
:100340007C38000084FCF8A4243C1800183C24A449
:10035000F8FC8400447C78441C180000485C545429
:100360007424000000043E7F442400003C7C404094
:100370003C7C40001C3C60603C1C00003C7C6030CD
:10038000607C3C00446C3810386C44009CBCA0A0DD
:10039000FC7C00004C64745C4C64000008083E77F0
:1003A0004141000000000077770000004141773EA6
:1003B0000808000002030103020301006686B07012
:1003C00070B08666007E424242427E00007E7E7EA3
:1003D0007E7E7E00FF808080808080800101010120
:1003E000010101FF11241FBECFEFD4E0DEBFCDBF5E
:1003F00013E0A0E0B1E0E8EBFEE102C005900D9251
:10040000A439B107D9F724E0A4E9B3E001C01D92F3
:10041000A430B207E1F70E9497050C945A0F0C9490
:1004200000008230910571F01CF4019739F01CC076
:100430008330910559F0049769F016C084E18093E8
:1004400000140BC085E18093001407C086E18093FF
:10045000001403C087E18093001482E58A95F1F7C8
:100460008091001490E0089580E090E00895BA9A99
:10047000BB9A85B7816085BF85B7826085BF85B728
:10048000846085BF85B7886085BF8BB780648BBF6C
:100490008BB780688BBF789408951F920F920FB628
:1004A0000F921124EF92FF920F931F932F933F937C
:1004B0004F935F936F937F938F939F93AF93BF936C
:1004C000CF93DF93EF93FF9381E191E09F938F931D
:1004D0000E94BD0A82E50E94CC03F82EE92E8CE42E
:1004E0000E94CC03182F092F89E50E94CC03C82F46
:1004F000D92F88E50E94CC03EF92FF920F931F93B0
:10050000DF93CF939F938F938AE391E09F938F9391
:100510000E94BD0A8DB79EB70C960FB6F8949EBF89
:100520000FBE8DBFFF91EF91DF91CF91BF91AF9142
:100530009F918F917F916F915F914F913F912F91FB
:100540001F910F91FF90EF900F900FBE0F901F9093
:1005500018951F920F920FB60F9211242F933F936D
:100560004F935F936F937F938F939F93AF93BF93BB
:10057000EF93FF9383E591E00E94D10AFF91EF9101
:10058000BF91AF919F918F917F916F915F914F91AB
:100590003F912F910F900FBE0F901F9018950F93C2
:1005A0001F93CF93DF93C4E6D0E000919E03109198
:1005B0009F0381E090E00E94110201581F4F081B29
:1005C000190B10939F0300939E0300919C031091BD
:1005D0009D0382E090E00E94110201581F4F081B0A
:1005E000190B10939D0300939C0321972097E9F624
:1005F00080919E0390919F0324E630E0B9010E9410
:10060000EC0970939F0360939E0380919C039091EB
:100610009D03B9010E94EC0970939D0360939C03B4
:10062000DF91CF911F910F9108952F923F924F929A
:100630005F926F927F928F929F92AF92BF92CF9272
:10064000DF92EF92FF920F931F93CF93DF9300D02F
:1006500000D000D0CDB7DEB73C017A8369835C83DC
:100660004B833E832D8318018501B901882777FDCF
:100670008095982F0E94FD084B015C01B3016E0D1F
:100680007F1D29813A81621B730B882777FD809536
:10069000982F0E94FD082B013C01B1018D819E81A4
:1006A000681B790B882777FD8095982F0E94FD089D
:1006B0009B01AC01C301B2010E9489092B013C01DD
:1006C0006B817C81E981FA816E1B7F0B882777FD26
:1006D0008095982F0E94FD089B01AC01C301B201D7
:1006E0000E9462089B01AC01C501B4010E94FE0793
:1006F0000E94CA08C101801B910B6817790774F525
:100700008D819E81800F911F861797074CF5F80108
:1007100011230CF43196F595E795D80112C08A0F94
:100720009B1FAC014E0F5F1F6417750714F0690122
:100730000BC0C6018E1B9F0B8617970714F0C01ABB
:10074000D10AC601801B910B9601200F311F621741
:1007500073072CF78617970714F704C0610102C0CE
:10076000CD80DE80C60126960FB6F894DEBF0FBEA0
:10077000CDBFDF91CF911F910F91FF90EF90DF9050
:10078000CF90BF90AF909F908F907F906F905F9031
:100790004F903F902F900895AF92BF92CF92DF92EB
:1007A000EF92FF920F931F93823509F474C020F4E7
:1007B0008C3409F44EC091C0883519F0893529F17F
:1007C0008CC0C0909A03D0909B03E0909E03F09061
:1007D0009F0381E090E00E9411020F2EFAE0AF2EFD
:1007E000B12CF02D04E610E02CE93FEF4FEF50E084
:1007F00060E070E00E94150390939B0380939A033E
:1008000080919A0390919B036AC0C0909803D09006
:100810009903E0909C03F0909D0382E090E00E9499
:1008200011020F2EFAE0AF2EB12CF02D04E610E0ED
:100830002CE93FEF4FEF50E060E070E00E941503BD
:1008400090939903809398038091980390919903D2
:1008500046C0C0909603D090970383E090E00E943A
:1008600011020F2EFAE0AF2EB12CF02DE12CF12C5D
:1008700004E610E020E030E04FEF50E060E070E090
:100880000E9415039093970380939603809196039B
:100890009091970324C0C0909403D090950384E076
:1008A00090E00E9411020F2EFAE0AF2EB12CF02D35
:1008B000E12CF12C04E610E020E030E04FEF50E0B6
:1008C00060E070E00E941503909395038093940379
:1008D000809194039091950302C080E090E01F9175
:1008E0000F91FF90EF90DF90CF90BF90AF90089561
:1008F0000E94CF0288E50E94CC0390939B038093D3
:100900009A0389E50E94CC039093990380939803FE
:100910008CE40E94CC03909397038093960382E526
:100920000E94CC03909395038093940320919C03A1
:1009300030919D0380919E0390919F033F932F934D
:100940009F938F9387E691E09F938F930E94BD0AB8
:100950006091940370919503409196035091970391
:10096000209198033091990380919A0390919B0371
:100970007F936F935F934F933F932F939F938F93A7
:1009800080E991E09F938F930E94BD0A8DB79EB737
:1009900040960FB6F8949EBF0FBE8DBF0895CF92BC
:1009A000DF92EF92FF920F931F93CF93DF9389EB28
:1009B00091E00E94D10A0E94620A6C010E94670ABB
:1009C000C0E0D0E000E010E00F2EFFECEF2EF1E0F1
:1009D000FF2EF02D0E94620AFE01F85E80832081C6
:1009E0002817A9F099279F938F931F922F93DF9336
:1009F000CF93FF92EF920E94BD0A0F5F1F4F8DB7FA
:100A00009EB708960FB6F8949EBF0FBE8DBF219675
:100A1000C11598E0D907F1F6C6010E94670AC0E047
:100A2000D0E0E12CF12C0F2EF8E0CF2EF2E0DF2EFB
:100A3000F02D0E94620AFE01F85E20812817B1F0B5
:100A400099279F938F931F922F93DF93CF93DF92DA
:100A5000CF920E94BD0A8FEFE81AF80A8DB79EB7B1
:100A600008960FB6F8949EBF0FBE8DBF2196C11594
:100A700098E0D907F1F6FF92EF921F930F9385E468
:100A800092E09F938F930E94BD0A0F900F900F905A
:100A90000F900F900F90DF91CF911F910F91FF90CA
:100AA000EF90DF90CF9008958FE190E00E94F207E1
:100AB0008CE992E09F938F9385EA92E09F938F93C6
:100AC00081EB92E09F938F9386EB92E09F938F93BD
:100AD0000E94BD0A85B7806885BF80B7806280BFED
:100AE0000E94C7060E94B3050E9478048CEF92E032
:100AF0000E94D10A0E94CF0484E293E00E94D10AAE
:100B00000E94370282E493E00E94D10A86E693E0D5
:100B10000E94D10A8BE793E00E94D10A8DB79EB75D
:100B200008960FB6F8949EBF0FBE8DBF08950E9421
:100B300054050E948F0784E50E94540762E070E02C
:100B400088E090E00E94BB0763E070E088E090E0FE
:100B50000E94BB0764E070E088E090E00E94BB0761
:100B60000E94D007FFCFCF93DF93CCEED3E0D0939A
:100B7000D303C093D2031092D5031092D4031092E2
:100B8000D7031092D603EEECF3E088EB90E091836C
:100B9000808383E090E09093D1038093D00324EA94
:100BA00033E03093F1032093F00368ED73E070932A
:100BB000F3036093F2031092F5031092F4034CEAEE
:100BC00050E0598348839093EF038093EE03F093B2
:100BD000A903E093A803CAEBD3E0D093AB03C0937F
:100BE000AA031092AD031092AC0340EA50E0D90181
:100BF0004D935C939093A7038093A60324EC33E07A
:100C00003093BF032093BE031092C1031092C00320
:100C1000F093C303E093C20384E990E0998388834F
:100C200082E090E09093BD038093BC03D093C9030E
:100C3000C093C8031092CB031092CA03F093CD0364
:100C4000E093CC0348E850E0D9014D935C93909336
:100C5000C7038093C603C2EED3E0D093DD03C093F5
:100C6000DC031092DF031092DE03F093E103E093C4
:100C7000E0032CE730E0DB012D933C939093DB0302
:100C80008093DA037093E7036093E6031092E9031D
:100C90001092E803F093EB03E093EA0320E730E0DF
:100CA000398328839093E5038093E403F093A103B1
:100CB000E093A003F093A303E093A203DF91CF910D
:100CC00008951092F9031092F8031092F70310920E
:100CD000F603E0910F01F091100181E28083E09131
:100CE0000F01F09110011082E0910F01F0911001BD
:100CF0008FE78083E0910F01F091100182E2808301
:100D0000E0910F01F09110011082E0910F01F0913C
:100D1000100187E080830895CF93DF93EC010E9458
:100D20006106D093F903C093F803C830D10588F465
:100D3000E0910F01F09110011082E0910F01F0910C
:100D4000100180E18083C06BE0910F01F0911001F0
:100D5000C083DF91CF910895089750F480E890E028
:100D6000E0910D01F0910E01108201970097C1F7FB
:100D70000895CF93DF93C0E0D0E0CE010E94AC068F
:100D80002196C830D105C9F7DF91CF91089585B775
:100D9000806885BF80B7806280BFE0910F01F091CD
:100DA00010018EEA8083E0910F01F091100181EA39
:100DB0008083E0910F01F09110018AED8083E09132
:100DC0000F01F091100182E18083E0910F01F09119
:100DD000100188EC8083E0910F01F091100188EA06
:100DE0008083E0910F01F09110018FE38083E09107
:100DF0000F01F091100185ED8083E0910F01F091DA
:100E0000100180E88083E0910F01F091100181E8EA
:100E10008083E0910F01F091100180E58083E091E3
:100E20000F01F091100189ED8083E0910F01F091A5
:100E3000100181E28083E0910F01F091100180E2C6
:100E40008083E0910F01F09110011082E0910F0179
:100E5000F09110018BED8083E0910F01F091100172
:100E600080E38083E0910F01F09110018DEA80838F
:100E7000E0910F01F09110011082E0910F01F091CB
:100E8000100184EA8083E0910F01F091100186EA5D
:100E90008083E0910F01F09110018FEA80830E941E
:100EA000B9060E9461060895882399F1E82FF0E0C1
:100EB000EE0FFF1FEE0FFF1FEE0FFF1FEC53F04072
:100EC00080E090E0A091F803B091F903B695BA2FB5
:100ED000AA27B795A7952091F6033091F703A20FA3
:100EE000B31F20910B0130910C01A20FB31F24916D
:100EF0002C932091F6033091F7032F5F3F4F3093EF
:100F0000F7032093F6030196319688309105D1F6C8
:100F100003C080E090E0089581E090E0089540E013
:100F200050E070E060E014C09C01240F351FE09198
:100F30000B01F0910C01E20FF31F10820196803833
:100F4000910591F740585F4F411584E0580719F01B
:100F5000872F962FE9CF08959695982F88279795F4
:100F60008795680F791FE0910B01F0910C01E60F56
:100F7000F71F408308959B0127703078332334F4A2
:100F800021503109286F3F6F2F5F3F4F41E050E004
:100F900002C0440F551F2A95E2F70E94AC0708953E
:100FA00080E090E00E948C0680E090E0E0910B01F0
:100FB000F0910C01E80FF91F208120930A01E091C4
:100FC0000D01F0910E01208301968038910571F793
:100FD00008955D9BFECF8CB908955F9BFECF8CB1C9
:100FE00090E0089590BD89B988E18AB96DEE77E007
:100FF00089EE97E00E94720A08955058BB27AA27ED
:101000000ED04DC13ED130F043D120F031F49F3F9E
:1010100011F41EF433C10EF4E095E7FB29C1E92F6A
:101020004FD180F3BA17620773078407950718F04A
:1010300071F49EF567C10EF4E0950B2EBA2FA02D2A
:101040000B01B90190010C01CA01A0011124FF2775
:10105000591B99F0593F50F4503E68F11A16F04070
:10106000A22F232F342F4427585FF3CF469537956F
:101070002795A795F0405395C9F77EF41F16BA0B34
:10108000620B730B840BBAF09150A1F0FF0FBB1FE2
:10109000661F771F881FC2F70EC0BA0F621F731F2B
:1010A000841F48F4879577956795B795F7959E3F88
:1010B00008F0B3CF9395880F08F09927EE0F979516
:1010C000879508950CD0EBC0E3D040F0DAD030F033
:1010D00021F45F3F19F0CCC0511115C1CFC0F0D041
:1010E00098F39923C9F35523B1F3951B550BBB27EF
:1010F000AA2762177307840738F09F5F5F4F220F9C
:10110000331F441FAA1FA9F333D00E2E3AF0E0E894
:1011100030D091505040E695001CCAF729D0FE2FE0
:1011200027D0660F771F881FBB1F26173707480772
:10113000AB07B0E809F0BB0B802DBF01FF27935828
:101140005F4F2AF09E3F510568F092C0DCC05F3FC0
:10115000ECF3983EDCF3869577956795B795F79510
:101160009F5FC9F7880F911D9695879597F9089508
:10117000E1E0660F771F881FBB1F621773078407A4
:10118000BA0720F0621B730B840BBA0BEE1F88F7B3
:10119000E095089504D06894B111B5C0089598D031
:1011A00088F09F5790F0B92F9927B751A0F0D1F050
:1011B000660F771F881F991F1AF0BA95C9F712C0DA
:1011C000B13081F09FD0B1E008959CC0672F782F97
:1011D0008827B85F39F0B93FCCF386957795679546
:1011E000B395D9F73EF490958095709561957F4FB2
:1011F0008F4F9F4F0895E89409C097FB3EF4909558
:101200008095709561957F4F8F4F9F4F9923A9F0DF
:10121000F92F96E9BB279395F6958795779567956E
:10122000B795F111F8CFFAF4BB0F11F460FF1BC0B2
:101230006F5F7F4F8F4F9F4F16C0882311F096E945
:1012400011C0772321F09EE8872F762F05C06623F3
:1012500071F096E8862F70E060E02AF09A95660FAC
:10126000771F881FDAF7880F9695879597F9089565
:1012700097F99F6780E870E060E008959FEF80EC49
:10128000089500240A9416161706180609060895EC
:1012900000240A9412161306140605060895092E52
:1012A0000394000C11F4882352F0BB0F40F4BF2BC1
:1012B00011F460FF04C06F5F7F4F8F4F9F4F089501
:1012C00057FD9058440F551F59F05F3F71F04795F7
:1012D000880F97FB991F61F09F3F79F087950895DC
:1012E000121613061406551FF2CF4695F1DF08C0FB
:1012F000161617061806991FF1CF86957105610518
:1013000008940895E894BB2766277727CB0197F9BF
:1013100008950BD0C4CFB5DF28F0BADF18F09523BD
:1013200009F0A6CFABCF1124EECFCADFA0F3959F73
:10133000D1F3950F50E0551F629FF001729FBB27BC
:10134000F00DB11D639FAA27F00DB11DAA1F649F68
:101350006627B00DA11D661F829F2227B00DA11D1B
:10136000621F739FB00DA11D621F839FA00D611DA1
:10137000221F749F3327A00D611D231F849F600DC2
:10138000211D822F762F6A2F11249F5750408AF0FB
:10139000E1F088234AF0EE0FFF1FBB1F661F771F87
:1013A000881F91505040A9F79E3F510570F060CFC3
:1013B000AACF5F3FECF3983EDCF38695779567956F
:1013C000B795F795E7959F5FC1F7FE2B880F911DA5
:1013D0009695879597F9089597FB072E16F4009434
:1013E00007D077FD09D00E94000A07FC05D03EF423
:1013F000909581959F4F0895709561957F4F0895C1
:10140000AA1BBB1B51E107C0AA1FBB1FA617B7072A
:1014100010F0A61BB70B881F991F5A95A9F7809546
:101420009095BC01CD0108958F929F92AF92BF928B
:10143000CF92DF92EF92FF92CF93DF93EC0168811E
:1014400079818A819B81611571058105910521F45E
:1014500064E279ED8BE597E02DE133EF41E050E078
:101460000E94C00E49015A019B01AC01A7EAB1E4F8
:101470000E94DF0E6B017C01ACEEB4EFA50194017C
:101480000E94ED0EC60ED71EE81EF91EF7FE06C01E
:1014900081E0C81AD108E10880E8F80AC882D98238
:1014A000EA82FB82C6019F77DF91CF91FF90EF9098
:1014B000DF90CF90BF90AF909F908F9008950E9443
:1014C000140A089580E091E00E94140A0895A0E0B3
:1014D000B0E08093000190930101A0930201B093CA
:1014E000030108950F931F93CF93DF93EC018B01BA
:1014F000009731F46115710519F480E090E038C06F
:101500006EE070E081E090E00E94D00CFC0100975A
:10151000A1F380E883830115110571F01387028719
:1015200081E883838091FA039091FB03892B21F456
:10153000F093FB03E093FA032097C9F0D187C087AB
:101540008381826083838091FC039091FD03892BCA
:1015500071F4F093FD03E093FC038091FE039091FE
:10156000FF03892B21F4F093FF03E093FE03CF01E7
:10157000DF91CF911F910F910895A0E0B0E0E3ECCF
:10158000FAE00C94020FFE01359661917191AF0162
:101590008091FC039091FD030E94FE0AE2E00C940E
:1015A0001E0F0F931F93CF93DF93E091FC03F091F5
:1015B000FD03238121FF1BC0EC0100E010E08991B5
:1015C0006091FC037091FD03DB011896ED91FC9195
:1015D0001997882331F00995892B89F30FEF1FEFB5
:1015E000EECF8AE00995892B11F4C80102C08FEF74
:1015F0009FEFDF91CF911F910F910895ACE0B0E084
:10160000E4E0FBE00C94F20E7C016B018A01FC012A
:1016100017821682838181FFBDC1CE0101964C01E4
:10162000F7019381F60193FD859193FF81916F01FD
:10163000882309F4ABC1853239F493FD859193FF7A
:1016400081916F01853229F4B70190E00E94300E3C
:10165000E7CF512C312C20E02032A0F48B3269F0FE
:1016600030F4803259F0833269F420612CC08D321D
:1016700039F0803339F4216026C02260246023C011
:10168000286021C027FD27C030ED380F3A3078F4AC
:1016900026FF06C0FAE05F9E300D1124532E13C0C2
:1016A0008AE0389E300D1124332E20620CC08E3219
:1016B00021F426FD6BC1206406C08C3611F420682D
:1016C00002C0883641F4F60193FD859193FF819124
:1016D0006F018111C1CF982F9F7D9554933028F4CD
:1016E0000C5F1F4FFFE3F9830DC0833631F0833762
:1016F00071F0833509F05BC022C0F80180818983D5
:101700000E5F1F4F44244394512C540115C03801DF
:10171000F2E06F0E711CF801A080B18026FF03C0BB
:10172000652D70E002C06FEF7FEFC5012C870E942E
:10173000250E2C0183012C852F77222E17C038010E
:10174000F2E06F0E711CF801A080B18026FF03C08B
:10175000652D70E002C06FEF7FEFC5012C870E94FE
:10176000130E2C012C852068222E830123FC1BC024
:10177000832D90E048165906B0F4B70180E290E05E
:101780000E94300E3A94F4CFF50127FC859127FE94
:1017900081915F01B70190E00E94300E31103A94C0
:1017A000F1E04F1A51084114510471F7E5C0843635
:1017B00011F0893639F5F80127FF07C06081718182
:1017C000828193810C5F1F4F08C0608171818827DF
:1017D00077FD8095982F0E5F1F4F2F76B22E97FFC3
:1017E00009C090958095709561957F4F8F4F9F4F61
:1017F0002068B22E2AE030E0A4010E94620EA82EDA
:10180000A81844C0853729F42F7EB22E2AE030E094
:1018100025C0F22FF97FBF2E8F36C1F018F488351E
:1018200079F0B4C0803719F0883721F0AFC02F2F7E
:101830002061B22EB4FE0DC08B2D8460B82E09C07D
:1018400024FF0AC09F2F9660B92E06C028E030E022
:1018500005C020E130E002C020E132E0F801B7FE2F
:1018600007C060817181828193810C5F1F4F06C028
:101870006081718180E090E00E5F1F4FA4010E94A3
:10188000620EA82EA818FB2DFF77BF2EB6FE0BC048
:101890002B2D2E7FA51450F4B4FE0AC0B2FC08C054
:1018A0002B2D2E7E05C07A2C2B2D03C07A2C01C047
:1018B000752C24FF0DC0FE01EA0DF11D80818033DF
:1018C00011F4297E09C022FF06C07394739404C0EA
:1018D000822F867809F0739423FD13C020FF06C081
:1018E0005A2C731418F4530C5718732C731468F48F
:1018F000B70180E290E02C870E94300E73942C8513
:10190000F5CF731410F4371801C0312C24FF12C026
:10191000B70180E390E02C870E94300E2C8522FFD7
:1019200017C021FF03C088E590E002C088E790E07F
:10193000B7010CC0822F867859F021FD02C080E2E9
:1019400001C08BE227FD8DE2B70190E00E94300ECE
:10195000A51438F4B70180E390E00E94300E5A9449
:10196000F7CFAA94F401EA0DF11D8081B70190E050
:101970000E94300EA110F5CF332009F451CEB701EB
:1019800080E290E00E94300E3A94F6CFF701868113
:10199000978102C08FEF9FEF2C96E2E10C940E0F1F
:1019A0000F931F93CF93DF93869F8001879F100D26
:1019B000969F100D1124C8010E94EC0CEC010097B9
:1019C00029F0A80160E070E00E941E0ECE01DF91B8
:1019D000CF911F910F910895CF93DF93823091059E
:1019E00010F482E090E0E0910204F091030420E022
:1019F00030E0A0E0B0E0309739F1408151814817E4
:101A00005907B8F04817590771F4828193811097EC
:101A100029F013969C938E9312972CC090930304F5
:101A20008093020427C02115310531F04217530776
:101A300018F0A901DB0101C0EF019A01BD01DF012E
:101A40000280F381E02DD7CF21153105F9F0281B55
:101A5000390B2430310580F48A819B816115710531
:101A600021F0FB019383828304C09093030480934D
:101A70000204FE01329644C0FE01E20FF31F81937F
:101A8000919322503109398328833AC02091000470
:101A900030910104232B41F420910601309107017C
:101AA000309301042093000420910401309105013A
:101AB0002115310541F42DB73EB7409108015091F1
:101AC0000901241B350BE0910004F0910104E21799
:101AD000F307A0F42E1B3F0B2817390778F0AC0151
:101AE0004E5F5F4F2417350748F04E0F5F1F50932E
:101AF0000104409300048193919302C0E0E0F0E080
:101B0000CF01DF91CF910895CF93DF93009709F430
:101B100087C0FC01329713821282C0910204D091D7
:101B20000304209781F420813181280F391F80918F
:101B30000004909101048217930779F5F093010452
:101B4000E09300046DC0DE0120E030E0AE17BF0777
:101B500050F412964D915C9113979D0141155105DA
:101B600009F1DA01F3CFB383A28340815181840F5D
:101B7000951F8A179B0771F48D919C911197840F83
:101B8000951F02969183808312968D919C91139755
:101B9000938382832115310529F4F0930304E093A4
:101BA00002043EC0D9011396FC93EE9312974D9117
:101BB0005D91A40FB51FEA17FB0779F4808191812D
:101BC000840F951F0296D90111969C938E93828162
:101BD000938113969C938E931297E0E0F0E08A81B4
:101BE0009B81009719F0FE01EC01F9CFCE0102961E
:101BF00028813981820F931F2091000430910104C4
:101C00002817390769F4309729F4109203041092C9
:101C1000020402C013821282D0930104C093000414
:101C2000DF91CF910895FC01059061507040011043
:101C3000D8F7809590958E0F9F1F0895DC0101C005
:101C40006D9341505040E0F70895FC0161507040A1
:101C500001900110D8F7809590958E0F9F1F0895E1
:101C60000F931F93CF93DF93182F092FEB018B81D5
:101C700081FD03C08FEF9FEF20C082FF10C04E8117
:101C80005F812C813D81421753077CF4E881F98103
:101C90009F012F5F3F4F39832883108306C0E8855B
:101CA000F985812F0995892B29F72E813F812F5F97
:101CB0003F4F3F832E83812F902FDF91CF911F9134
:101CC0000F910895FA01AA27283051F1203181F1AE
:101CD000E8946F936E7F6E5F7F4F8F4F9F4FAF4F34
:101CE000B1E03ED0B4E03CD0670F781F891F9A1F47
:101CF000A11D680F791F8A1F911DA11D6A0F711DFB
:101D0000811D911DA11D20D009F468943F912AE006
:101D1000269F11243019305D3193DEF6CF010895EE
:101D2000462F4770405D4193B3E00FD0C9F7F6CF1F
:101D3000462F4F70405D4A3318F0495D31FD4052E7
:101D4000419302D0A9F7EACFB4E0A695979587957D
:101D500077956795BA95C9F700976105710508955C
:101D60009B01AC010A2E0694579547953795279508
:101D7000BA95C9F7620F731F841F951FA01D0895A0
:101D8000052E97FB1EF400940E94D70E57FD07D036
:101D90000E94290F07FC03D04EF40C94D70E5095E7
:101DA0004095309521953F4F4F4F5F4F0895909547
:101DB0008095709561957F4F8F4F9F4F08950E943A
:101DC0004B0FA59F900DB49F900DA49F800D911D6A
:101DD00011240895B7FF0C94DF0E0E94DF0E821BC2
:101DE000930B08952F923F924F925F926F927F9242
:101DF0008F929F92AF92BF92CF92DF92EF92FF921B
:101E00000F931F93CF93DF93CDB7DEB7CA1BDB0BC6
:101E10000FB6F894DEBF0FBECDBF09942A8839886B
:101E200048885F846E847D848C849B84AA84B98472
:101E3000C884DF80EE80FD800C811B81AA81B9817E
:101E4000CE0FD11D0FB6F894DEBF0FBECDBFED0192
:101E50000895A1E21A2EAA1BBB1BFD010DC0AA1FEB
:101E6000BB1FEE1FFF1FA217B307E407F50720F003
:101E7000A21BB30BE40BF50B661F771F881F991F7E
:101E80001A9469F760957095809590959B01AC01C7
:101E9000BD01CF010895A29FB001B39FC001A39FD0
:101EA000700D811D1124911DB29F700D811D112493
:081EB000911D0895F894FFCF85
:101EB80001000000000004042000200018001200A7
:101EC80010526967687420627574746F6E2070723E
:101ED80065737365642C207072696E74696E67200F
:101EE80076616C7565733A090900583A20256909C5
:101EF800593A202569094C3A20256909523A202582
:101F0800690A004C65667420427574746F6E2050BF
:101F18007265737365640043616C696272617469A8
:101F28006F6E2076616C7565733A200963616C5F2A
:101F3800583A2025690963616C5F593A25690A0096
:101F48005265666572656E63652056616C7565736A
:101F58003A2009582025690959202569094C202566
:101F6800690952202569090A005374617274696EFF
:101F780067205352414D20746573742E2E2E0057DE
:101F880072697465207068617365206572726F721A
:101F98003A206578745F72616D5B2534645D203D1D
:101FA8002025303258202873686F756C642062656C
:101FB8002025303258290A005265747269657661A5
:101FC8006C207068617365206572726F723A206563
:101FD80078745F72616D5B2534645D203D20253027
:101FE8003258202873686F756C642062652025302C
:101FF8003258290A005352414D2074657374206386
:102008006F6D706C6574656420776974680A25342F
:1020180064206572726F727320696E2077726974BA
:102028006520706861736520616E640A25346420D8
:102038006572726F727309696E2072657472696570
:1020480076616C2070686173650A0A0031383A3528
:10205800393A3234004F637420203220323031371D
:10206800006C346432004C4F4144494E472067317C
:10207800375F25732025732025730A494E49544933
:10208800414C495A494E472E2E2E0A0A5541525460
:10209800207375636365737366756C6C7920696EFC
:1020A800697469616C697A65640A0A00636F6E74A1
:1020B800726F6C20696E70757420737563636573D5
:1020C8007366756C6C7920696E697469616C697A7C
:1020D80065640A005352414D2073756363657373D9
:1020E80066756C6C7920696E697469616C697A656A
:1020F8006400496E746572727570747320737563C9
:102108006365737366756C6C7920696E697469614F
:102118006C697A656400496E74657272757074735F
:1021280020616374697661746564000A494E495494
:1021380049414C495A4154494F4E20434F4D504C08
:0421480045544500B5
:00000001FF
