:100000000C94F2010C944C020C94A8020C940F0274
:100010000C940F020C940F020C940F020C940F021C
:100020000C940F020C940F020C940F020C940F020C
:100030000C940F020C940F020C940F020C940F02FC
:100040000C940F020C940F020C940F020C940F02EC
:100050000C940F020C940F020C940F020C940F02DC
:100060000C940F020C940F020C940F020C940F02CC
:1000700043616C6962726174650000006669742096
:1000800073637265656E0000436F6E7472617374A2
:10009000000000004D75736963000000000000005F
:1000A0004F7074696F6E73000000000044656275E4
:1000B00067000000000000004869676873636F72A2
:1000C00065000000000000000000000000065F5F07
:1000D000060000000007070007070000147F7F14D8
:1000E0007F7F1400242E6B6B3A1200004666301896
:1000F0000C666200307A4F5D377A480004070300CF
:1001000000000000001C3E63410000000041633E0F
:100110001C000000082A3E1C1C3E2A0808083E3E1F
:100120000808000000A0E0600000000008080808BF
:100130000808000000006060000000006030180C3B
:10014000060301003E7F594D7F3E000042427F7F03
:1001500040400000627359496F66000022634949BC
:100160007F360000181C16137F7F10002767454557
:100170007D3900003C7E4B497930000003637119E2
:100180000F070000367F49497F360000064F496956
:100190003F1E000000006C6C0000000000A0EC6C32
:1001A00000000000081C3663410000001414141401
:1001B00014140000004163361C080000020351596A
:1001C0000F0600003E7F415D5D1F1E007C7E131305
:1001D0007E7C0000417F7F49497F36001C3E6341A1
:1001E00041632200417F7F41637F1C00417F7F4943
:1001F0005D416300417F7F491D0103001C3E634157
:10020000517372007F7F08087F7F000000417F7F6D
:1002100041000000307040417F3F0100417F7F0876
:100220001C776300417F7F41406070007F7F060C38
:10023000067F7F007F7F060C187F7F001C3E634196
:10024000633E1C00417F7F49090F06001E3F21715C
:100250007F5E0000417F7F19396F460026674D5948
:100260007B32000003417F7F410300007F7F4040DD
:100270007F7F00001F3F60603F1F00007F7F3018BE
:10028000307F7F0063771C081C776300074F787806
:100290004F0700006773594D47637100007F7F412E
:1002A000410000000103060C183060000041417F4E
:1002B0007F000000080C0603060C08008080808088
:1002C00080808080000003070400000020745454E4
:1002D0003C784000413F7F44447C3800387C4444B3
:1002E0006C280000307848493F7F4000387C5454E7
:1002F0005C180000487E7F490302000098BCA4A45B
:10030000F87C0400417F7F08047C780000447D7DF8
:100310004000000040C484FD7D000000417F7F104C
:10032000386C440000417F7F400000007C7C0C184A
:100330000C7C78007C7C04047C780000387C44448D
:100340007C38000084FCF8A4243C1800183C24A449
:10035000F8FC8400447C78441C180000485C545429
:100360007424000000043E7F442400003C7C404094
:100370003C7C40001C3C60603C1C00003C7C6030CD
:10038000607C3C00446C3810386C44009CBCA0A0DD
:10039000FC7C00004C64745C4C64000008083E77F0
:1003A0004141000000000077770000004141773EA6
:1003B0000808000002030103020301006686B07012
:1003C00070B08666007E424242427E00007E7E7EA3
:1003D0007E7E7E00FF808080808080800101010120
:1003E000010101FF11241FBECFEFD4E0DEBFCDBF5E
:1003F00013E0A0E0B1E0E6E0F2E202C005900D9269
:10040000A23DB107D9F724E0A2EDB3E001C01D92EF
:10041000A334B207E1F70E94A4050C9401110C94D7
:1004200000008230910571F01CF4019739F01CC076
:100430008330910559F0049769F016C084E18093E8
:1004400000140BC085E18093001407C086E18093FF
:10045000001403C087E18093001482E58A95F1F7C8
:100460008091001490E0089580E090E00895BA9A99
:10047000BB9A85B7816085BF85B7826085BF85B728
:10048000846085BF85B7886085BF8BB780648BBF6C
:100490008BB780688BBF08951F920F920FB60F9293
:1004A0001124EF92FF920F931F932F933F934F933B
:1004B0005F936F937F938F939F93AF93BF93CF93EC
:1004C000DF93EF93FF9380E191E09F938F930E94DE
:1004D000640C82E50E94CB03F82EE92E8CE40E9486
:1004E000CB03182F092F89E50E94CB03C82FD92FE2
:1004F00088E50E94CB03EF92FF920F931F93DF9347
:10050000CF939F938F9389E391E09F938F930E9462
:10051000640C8DB79EB70C960FB6F8949EBF0FBEB5
:100520008DBFFF91EF91DF91CF91BF91AF919F91DF
:100530008F917F916F915F914F913F912F911F917B
:100540000F91FF90EF900F900FBE0F901F90189596
:100550001F920F920FB60F9211242F933F934F9338
:100560005F936F937F938F939F93AF93BF93EF931B
:10057000FF9382E591E00E94780CFF91EF91BF918B
:10058000AF919F918F917F916F915F914F913F912B
:100590002F910F900FBE0F901F9018950F931F93E0
:1005A000CF93DF93C4E6D0E00091DC031091DD032C
:1005B00081E090E00E94110201581F4F081B190BA7
:1005C0001093DD030093DC030091DA031091DB0349
:1005D00082E090E00E94110201581F4F081B190B86
:1005E0001093DB030093DA0321972097E9F68091BB
:1005F000DC039091DD0324E630E0B9010E948C0B0E
:100600007093DD036093DC038091DA039091DB0348
:10061000B9010E948C0B7093DB036093DA03DF91C6
:10062000CF911F910F9108952F923F924F925F9219
:100630006F927F928F929F92AF92BF92CF92DF92F2
:10064000EF92FF920F931F93CF93DF9300D000D0D0
:1006500000D0CDB7DEB73C017A8369835C834B83DE
:100660003E832D8318018501B901882777FD809588
:10067000982F0E949D0A4B015C01B3016E0D7F1DF6
:1006800029813A81621B730B882777FD8095982F0B
:100690000E949D0A2B013C01B1018D819E81681B46
:1006A000790B882777FD8095982F0E949D0A9B01E2
:1006B000AC01C301B2010E94290B2B013C016B81EB
:1006C0007C81E981FA816E1B7F0B882777FD8095FD
:1006D000982F0E949D0A9B01AC01C301B2010E94A8
:1006E000020A9B01AC01C501B4010E949E090E944F
:1006F0006A0AC101801B910B6817790774F58D8117
:100700009E81800F911F861797074CF5F8011123E2
:100710000CF43196F595E795D80112C08A0F9B1F0E
:10072000AC014E0F5F1F6417750714F069010BC011
:10073000C6018E1B9F0B8617970714F0C01AD10AAB
:10074000C601801B910B9601200F311F62177307A2
:100750002CF78617970714F704C0610102C0CD80FB
:10076000DE80C60126960FB6F894DEBF0FBECDBF61
:10077000DF91CF911F910F91FF90EF90DF90CF907D
:10078000BF90AF909F908F907F906F905F904F90B1
:100790003F902F900895AF92BF92CF92DF92EF9249
:1007A000FF920F931F93823509F474C020F48C34A8
:1007B00009F44EC091C0883519F0893529F18CC0F3
:1007C000C090D803D090D903E090DC03F090DD0313
:1007D00081E090E00E9411020F2EFAE0AF2EB12CC2
:1007E000F02D04E610E02CE93FEF4FEF50E060E021
:1007F00070E00E9414039093D9038093D8038091F2
:10080000D8039091D9036AC0C090D603D090D70383
:10081000E090DA03F090DB0382E090E00E941102A6
:100820000F2EFAE0AF2EB12CF02D04E610E02CE9EB
:100830003FEF4FEF50E060E070E00E9414039093B0
:10084000D7038093D6038091D6039091D70346C0F7
:10085000C090D403D090D50383E090E00E941102B1
:100860000F2EFAE0AF2EB12CF02DE12CF12C04E686
:1008700010E020E030E04FEF50E060E070E00E94D8
:1008800014039093D5038093D4038091D403909163
:10089000D50324C0C090D203D090D30384E090E06D
:1008A0000E9411020F2EFAE0AF2EB12CF02DE12C98
:1008B000F12C04E610E020E030E04FEF50E060E083
:1008C00070E00E9414039093D3038093D20380912D
:1008D000D2039091D30302C080E090E01F910F916A
:1008E000FF90EF90DF90CF90BF90AF9008950E945F
:1008F000CE0288E50E94CB039093D9038093D8035E
:1009000089E50E94CB039093D7038093D6038CE4B0
:100910000E94CB039093D5038093D40382E50E9479
:10092000CB039093D3038093D2032091DA033091C9
:10093000DB038091DC039091DD033F932F939F9322
:100940008F9386E691E09F938F930E94640C609151
:10095000D2037091D3034091D4035091D5032091D9
:10096000D6033091D7038091D8039091D9037F9318
:100970006F935F934F933F932F939F938F938FE842
:1009800091E09F938F930E94640C8DB79EB7409621
:100990000FB6F8949EBF0FBE8DBF0895CF92DF9221
:1009A000EF92FF920F931F93CF93DF9388EB91E029
:1009B0000E94780C0E94020C6C010E94070CC0E09F
:1009C000D0E000E010E00F2EFEECEF2EF1E0FF2E65
:1009D000F02D0E94020CFE01F85E80832081281712
:1009E000A9F099279F938F931F922F93DF93CF9313
:1009F000FF92EF920E94640C0F5F1F4F8DB79EB75E
:100A000008960FB6F8949EBF0FBE8DBF2196C115F4
:100A100098E0D907F1F6C6010E94070CC0E0D0E0CB
:100A2000E12CF12C0F2EF7E0CF2EF2E0DF2EF02D8F
:100A30000E94020CFE01F85E20812817B1F0992770
:100A40009F938F931F922F93DF93CF93DF92CF9239
:100A50000E94640C8FEFE81AF80A8DB79EB70896CB
:100A60000FB6F8949EBF0FBE8DBF2196C11598E0BA
:100A7000D907F1F6FF92EF921F930F9384E492E06F
:100A80009F938F930E94640C0F900F900F900F9084
:100A90000F900F90DF91CF911F910F91FF90EF90EA
:100AA000DF90CF900895F8948FE190E00E94920932
:100AB0008BE992E09F938F9384EA92E09F938F93C8
:100AC00080EB92E09F938F9385EB92E09F938F93BF
:100AD0000E94640C85B7806885BF80B7806280BF44
:100AE0000E94B9070E94AE088BEF92E00E94A30813
:100AF0000E94CE088AE093E00E94780C0E94BC0518
:100B00000E94770488E293E00E94780C0E94CE0451
:100B100080E593E00E94780C0E9437028EE693E015
:100B20000E94780C82E993E00E94780C87EA93E0B7
:100B30000E94780C78948DB79EB708960FB6F894FB
:100B40009EBF0FBE8DBF08950E9453050E94AE0840
:100B500087E090E00E946E0780EC93E00E94A3087B
:100B60002FEF8FE791E0215080409040E1F700C0E7
:100B700000C00E94D306F4CFCF93DF93CFE2D4E03E
:100B8000D0931604C0931504109218041092170401
:100B900010921A0410921904E1E1F4E088EB90E05D
:100BA0009183808383E090E09093140480931304F6
:100BB00027EE33E030933404209333046BE174E088
:100BC0007093360460933504109238041092370401
:100BD0004CEA50E059834883909332048093310467
:100BE000F093EC03E093EB03CDEFD3E0D093EE036F
:100BF000C093ED031092F0031092EF0340EA50E02F
:100C0000D9014D935C939093EA038093E90327E025
:100C100034E03093020420930104109204041092F3
:100C20000304F0930604E093050484E990E09983BB
:100C3000888382E090E0909300048093FF03D09338
:100C40000C04C0930B0410920E0410920D04F09348
:100C50001004E0930F0448E850E0D9014D935C93F1
:100C600090930A0480930904C5E2D4E0D093200451
:100C7000C0931F041092220410922104F0932404C4
:100C8000E09323042CE730E0DB012D933C93909319
:100C90001E0480931D0470932A046093290410920B
:100CA0002C0410922B04F0932E04E0932D0420E7E3
:100CB00030E0398328839093280480932704F093AD
:100CC000E403E093E303F093E603E093E503DF91AD
:100CD000CF910895CF93DF9388E50E94CB03EC0179
:100CE00089E50E94CB0387349105ECF0E091E503A0
:100CF000F091E603828193810197181619060CF092
:100D00004DC080E090E00480F581E02D01962281C5
:100D100033812150310982179307ACF3F093E60336
:100D2000E093E5033BC08A3B9F4F5CF4E091E50311
:100D3000F091E603848195819093E6038093E50327
:100D40002DC0C734D1058CF0E091E503F091E603A6
:100D500086819781009749F09093E4038093E303A1
:100D60009093E6038093E50319C0CA3BDF4FB4F4C8
:100D7000E091E503F091E60380859185009771F09D
:100D8000E091E303F091E403208531853093E4039F
:100D90002093E3039093E6038093E50381E090E0E2
:100DA000DF91CF9108950F931F93CF93DF930E940C
:100DB0006A06892B09F45CC0C0E0D0E0CE010E9435
:100DC00019092196C730D105C9F780E090E00E944B
:100DD000190981E090E00E94190982E090E00E94E8
:100DE000190983E090E00E941909E091E303F09172
:100DF000E4038281938118161906D4F5C0E0D0E08F
:100E000010E801E8CE010E946E0780E090E00E94A9
:100E10009007E091E303F091E4036081718181EF39
:100E200093E00E94120C2091E3033091E40380913F
:100E3000E5039091E6032817390711F4802F01C0CC
:100E4000812F0E94460881EF93E00E94A308E09161
:100E5000E303F091E4030480F581E02DF093E403D3
:100E6000E093E303219682819381C817D90754F256
:100E700087E090E00E9449090E94CE08DF91CF915F
:100E80001F910F9108951092E2031092E1031092C6
:100E9000E0031092DF03E0910E01F0910F0181E277
:100EA0008083E0910E01F0910F011082E0910E011C
:100EB000F0910F018FE78083E0910E01F0910F0117
:100EC00082E28083E0910E01F0910F011082E091A7
:100ED0000E01F0910F0187E080830895CF93DF9397
:100EE000EC010E944307D093E203C093E103CE01DB
:100EF00087709927892B89F0E0910E01F0910F01FD
:100F00001082E0910E01F0910F0180E18083C06BAF
:100F1000E0910E01F0910F01C083DF91CF91089510
:100F20008F7799279093E0038093DF030895CF9301
:100F3000DF93EC010E946E07289750F480E890E060
:100F4000E0910C01F0910D01108201970097C1F71B
:100F5000DF91CF910895CF93DF93C0E0D0E0CE0131
:100F60000E9497072196C830D105C9F7DF91CF912C
:100F7000089585B7806885BF80B7806280BFE091A3
:100F80000E01F0910F018EEA8083E0910E01F09145
:100F90000F0181EA8083E0910E01F0910F018AED4B
:100FA0008083E0910E01F0910F0182E18083E09156
:100FB0000E01F0910F0188EC8083E0910E01F09119
:100FC0000F0188EA8083E0910E01F0910F018FE319
:100FD0008083E0910E01F0910F0185ED8083E09117
:100FE0000E01F0910F0180E88083E0910E01F091F5
:100FF0000F0181E88083E0910E01F0910F0180E5FF
:101000008083E0910E01F0910F0189ED8083E091E2
:101010000E01F0910F0181E28083E0910E01F091C9
:101020000F0180E28083E0910E01F0910F011082A8
:10103000E0910E01F0910F018BED8083E0910E01A4
:10104000F0910F0180E38083E0910E01F0910F0198
:101050008DEA8083E0910E01F0910F011082E09102
:101060000E01F0910F0184EA8083E0910E01F0916E
:101070000F0186EA8083E0910E01F0910F018FEA63
:1010800080830E94AB070E94430708958A3091F441
:101090008091E1039091E2030196877099279093E4
:1010A000E2038093E1031092E0031092DF0381E0FA
:1010B00090E00895882309F443C0E82FF0E0EE0F94
:1010C000FF1FEE0FFF1FEE0FFF1FEC53F04080E0FD
:1010D00090E0A091E103B091E203B695BA2FAA2760
:1010E000B795A7952091DF033091E003A20FB31FBE
:1010F00020910A0130910B01A20FB31F24912C9370
:101100002091DF033091E0032F5F3F4F3093E003E6
:101110002093DF030196319688309105D1F681E066
:1011200090E00090E10302C0880F991F0A94E2F753
:101130009091DE03892B8093DE0381E090E0089597
:1011400080E090E00895CF93DF93EC0189910E94B5
:101150004608892BD9F7DF91CF91089540E050E000
:1011600070E060E014C09C01240F351FE0910A017B
:10117000F0910B01E20FF31F108201968038910568
:1011800091F740585F4F411584E0580719F0872FB9
:10119000962FE9CF8FEF8093DE030895CF92DF92F1
:1011A000EF92FF920F931F93CF93DF938091DE0313
:1011B0008823B1F1E12CF12CC0E0D0E0CC24C39421
:1011C000D12C86010C2E02C0000F111F0A94E2F7E9
:1011D0008023C1F0CE010E946E07C70180589F4F47
:1011E0009701E0910A01F0910B01E20FF31F40819A
:1011F000E0910C01F0910D0140832F5F3F4F2817C4
:10120000390779F700958091DE0308230093DE0308
:10121000219680E8E80EF11C002311F0802FD1CF39
:10122000DF91CF911F910F91FF90EF90DF90CF90C2
:101230000895CF93DF93EC010E946E07C830D1056B
:1012400028F5BE017695762F66277795679520E07D
:1012500030E0A901460F571FE0910A01F0910B0100
:10126000E40FF51F10822F5F3F4F2038310589F7BB
:1012700081E090E09C0102C0220F331FCA95E2F783
:10128000E9018091DE03C82BC093DE03DF91CF918B
:1012900008951F93CF93DF93DC01B695BA2FAA2749
:1012A000B795A795E0910A01F0910B01EA0FFB1F9A
:1012B0001081BD0160587F4F9D0140910A015091FE
:1012C0000B01FA01E20FF31F2F5F3F4FEA01C20F3C
:1012D000D31F488140832617370779F7A158BF4F9E
:1012E00020910A0130910B01A20FB31F1C9321E042
:1012F00030E0A90102C0440F551F8A95E2F7CA01E8
:101300009091DE03892B8093DE03DF91CF911F91B3
:1013100008955D9BFECF8CB908955F9BFECF8CB185
:1013200090E0089590BD89B988E18AB96DE879E0C7
:1013300089E899E00E94190C08955058BB27AA2704
:101340000ED04DC13ED130F043D120F031F49F3F5B
:1013500011F41EF433C10EF4E095E7FB29C1E92F27
:101360004FD180F3BA17620773078407950718F007
:1013700071F49EF567C10EF4E0950B2EBA2FA02DE7
:101380000B01B90190010C01CA01A0011124FF2732
:10139000591B99F0593F50F4503E68F11A16F0402D
:1013A000A22F232F342F4427585FF3CF469537952C
:1013B0002795A795F0405395C9F77EF41F16BA0BF1
:1013C000620B730B840BBAF09150A1F0FF0FBB1F9F
:1013D000661F771F881FC2F70EC0BA0F621F731FE8
:1013E000841F48F4879577956795B795F7959E3F45
:1013F00008F0B3CF9395880F08F09927EE0F9795D3
:10140000879508950CD0EBC0E3D040F0DAD030F0EF
:1014100021F45F3F19F0CCC0511115C1CFC0F0D0FD
:1014200098F39923C9F35523B1F3951B550BBB27AB
:10143000AA2762177307840738F09F5F5F4F220F58
:10144000331F441FAA1FA9F333D00E2E3AF0E0E851
:1014500030D091505040E695001CCAF729D0FE2F9D
:1014600027D0660F771F881FBB1F2617370748072F
:10147000AB07B0E809F0BB0B802DBF01FF279358E5
:101480005F4F2AF09E3F510568F092C0DCC05F3F7D
:10149000ECF3983EDCF3869577956795B795F795CD
:1014A0009F5FC9F7880F911D9695879597F90895C5
:1014B000E1E0660F771F881FBB1F62177307840761
:1014C000BA0720F0621B730B840BBA0BEE1F88F770
:1014D000E095089504D06894B111B5C0089598D0EE
:1014E00088F09F5790F0B92F9927B751A0F0D1F00D
:1014F000660F771F881F991F1AF0BA95C9F712C097
:10150000B13081F09FD0B1E008959CC0672F782F53
:101510008827B85F39F0B93FCCF386957795679502
:10152000B395D9F73EF490958095709561957F4F6E
:101530008F4F9F4F0895E89409C097FB3EF4909514
:101540008095709561957F4F8F4F9F4F9923A9F09C
:10155000F92F96E9BB279395F6958795779567952B
:10156000B795F111F8CFFAF4BB0F11F460FF1BC06F
:101570006F5F7F4F8F4F9F4F16C0882311F096E902
:1015800011C0772321F09EE8872F762F05C06623B0
:1015900071F096E8862F70E060E02AF09A95660F69
:1015A000771F881FDAF7880F9695879597F9089522
:1015B00097F99F6780E870E060E008959FEF80EC06
:1015C000089500240A9416161706180609060895A9
:1015D00000240A9412161306140605060895092E0F
:1015E0000394000C11F4882352F0BB0F40F4BF2B7E
:1015F00011F460FF04C06F5F7F4F8F4F9F4F0895BE
:1016000057FD9058440F551F59F05F3F71F04795B3
:10161000880F97FB991F61F09F3F79F08795089598
:10162000121613061406551FF2CF4695F1DF08C0B7
:10163000161617061806991FF1CF869571056105D4
:1016400008940895E894BB2766277727CB0197F97C
:1016500008950BD0C4CFB5DF28F0BADF18F095237A
:1016600009F0A6CFABCF1124EECFCADFA0F3959F30
:10167000D1F3950F50E0551F629FF001729FBB2779
:10168000F00DB11D639FAA27F00DB11DAA1F649F25
:101690006627B00DA11D661F829F2227B00DA11DD8
:1016A000621F739FB00DA11D621F839FA00D611D5E
:1016B000221F749F3327A00D611D231F849F600D7F
:1016C000211D822F762F6A2F11249F5750408AF0B8
:1016D000E1F088234AF0EE0FFF1FBB1F661F771F44
:1016E000881F91505040A9F79E3F510570F060CF80
:1016F000AACF5F3FECF3983EDCF38695779567952C
:10170000B795F795E7959F5FC1F7FE2B880F911D61
:101710009695879597F9089597FB072E16F40094F0
:1017200007D077FD09D00E94A00B07FC05D03EF43E
:10173000909581959F4F0895709561957F4F08957D
:10174000AA1BBB1B51E107C0AA1FBB1FA617B707E7
:1017500010F0A61BB70B881F991F5A95A9F7809503
:101760009095BC01CD0108958F929F92AF92BF9248
:10177000CF92DF92EF92FF92CF93DF93EC016881DB
:1017800079818A819B81611571058105910521F41B
:1017900064E279ED8BE597E02DE133EF41E050E035
:1017A0000E94671049015A019B01AC01A7EAB1E40C
:1017B0000E9486106B017C01ACEEB4EFA501940190
:1017C0000E949410C60ED71EE81EF91EF7FE06C032
:1017D00081E0C81AD108E10880E8F80AC882D982F5
:1017E000EA82FB82C6019F77DF91CF91FF90EF9055
:1017F000DF90CF90BF90AF909F908F9008950E9400
:10180000B40B089580E091E00E94B40B0895A0E02D
:10181000B0E08093000190930101A0930201B09386
:1018200003010895FB01DC0105900D920020E1F712
:1018300008950F931F93CF93DF93EC018B010097D3
:1018400031F46115710519F480E090E038C06EE064
:1018500070E081E090E00E94770EFC010097A1F318
:1018600080E883830115110571F01387028781E8F1
:1018700083838091390490913A04892B21F4F09369
:101880003A04E09339042097C9F0D187C087838157
:101890008260838380913B0490913C04892B71F496
:1018A000F0933C04E0933B0480913D0490913E040E
:1018B000892B21F4F0933E04E0933D04CF01DF91A6
:1018C000CF911F910F910895A0E0B0E0EAE6FCE00F
:1018D0000C94A910FE01359661917191AF01809130
:1018E0003B0490913C040E94A50CE2E00C94C510CE
:1018F0000F931F93CF93DF93E0913B04F0913C044F
:10190000238121FF1BC0EC0100E010E08991609170
:101910003B0470913C04DB011896ED91FC91199702
:10192000882331F00995892B89F30FEF1FEFEECF54
:101930008AE00995892B11F4C80102C08FEF9FEF4F
:10194000DF91CF911F910F910895ACE0B0E0EBEAE9
:10195000FCE00C9499107C016B018A01FC01178258
:101960001682838181FFBDC1CE0101964C01F70132
:101970009381F60193FD859193FF81916F018823F7
:1019800009F4ABC1853239F493FD859193FF8191C0
:101990006F01853229F4B70190E00E94D70FE7CF9D
:1019A000512C312C20E02032A0F48B3269F030F43D
:1019B000803259F0833269F420612CC08D3239F0C5
:1019C000803339F4216026C02260246023C028605F
:1019D00021C027FD27C030ED380F3A3078F426FFBC
:1019E00006C0FAE05F9E300D1124532E13C08AE02A
:1019F000389E300D1124332E20620CC08E3221F41B
:101A000026FD6BC1206406C08C3611F4206802C02C
:101A1000883641F4F60193FD859193FF81916F0122
:101A20008111C1CF982F9F7D9554933028F40C5F7E
:101A30001F4FFFE3F9830DC0833631F0833771F018
:101A4000833509F05BC022C0F801808189830E5F75
:101A50001F4F44244394512C540115C03801F2E027
:101A60006F0E711CF801A080B18026FF03C0652DA8
:101A700070E002C06FEF7FEFC5012C870E94CC0F92
:101A80002C0183012C852F77222E17C03801F2E01C
:101A90006F0E711CF801A080B18026FF03C0652D78
:101AA00070E002C06FEF7FEFC5012C870E94BA0F74
:101AB0002C012C852068222E830123FC1BC0832D42
:101AC00090E048165906B0F4B70180E290E00E9419
:101AD000D70F3A94F4CFF50127FC859127FE819129
:101AE0005F01B70190E00E94D70F31103A94F1E006
:101AF0004F1A51084114510471F7E5C0843611F0B2
:101B0000893639F5F80127FF07C06081718182812C
:101B100093810C5F1F4F08C060817181882777FD1A
:101B20008095982F0E5F1F4F2F76B22E97FF09C01A
:101B300090958095709561957F4F8F4F9F4F20684E
:101B4000B22E2AE030E0A4010E940910A82EA818A5
:101B500044C0853729F42F7EB22E2AE030E025C01C
:101B6000F22FF97FBF2E8F36C1F018F4883579F047
:101B7000B4C0803719F0883721F0AFC02F2F206113
:101B8000B22EB4FE0DC08B2D8460B82E09C024FF88
:101B90000AC09F2F9660B92E06C028E030E005C02D
:101BA00020E130E002C020E132E0F801B7FE07C0DA
:101BB00060817181828193810C5F1F4F06C06081BB
:101BC000718180E090E00E5F1F4FA4010E94091018
:101BD000A82EA818FB2DFF77BF2EB6FE0BC02B2D0D
:101BE0002E7FA51450F4B4FE0AC0B2FC08C02B2D01
:101BF0002E7E05C07A2C2B2D03C07A2C01C0752CAB
:101C000024FF0DC0FE01EA0DF11D8081803311F427
:101C1000297E09C022FF06C07394739404C0822FEA
:101C2000867809F0739423FD13C020FF06C05A2C58
:101C3000731418F4530C5718732C731468F4B70109
:101C400080E290E02C870E94D70F73942C85F5CF0B
:101C5000731410F4371801C0312C24FF12C0B701DF
:101C600080E390E02C870E94D70F2C8522FF17C0BD
:101C700021FF03C088E590E002C088E790E0B7014B
:101C80000CC0822F867859F021FD02C080E201C08D
:101C90008BE227FD8DE2B70190E00E94D70FA514DB
:101CA00038F4B70180E390E00E94D70F5A94F7CF41
:101CB000AA94F401EA0DF11D8081B70190E00E9421
:101CC000D70FA110F5CF332009F451CEB70180E230
:101CD00090E00E94D70F3A94F6CFF7018681978162
:101CE00002C08FEF9FEF2C96E2E10C94B5100F939A
:101CF0001F93CF93DF93869F8001879F100D969F40
:101D0000100D1124C8010E94930EEC01009729F0D8
:101D1000A80160E070E00E94C50FCE01DF91CF9175
:101D20001F910F910895CF93DF938230910510F4A6
:101D300082E090E0E0914104F091420420E030E044
:101D4000A0E0B0E0309739F1408151814817590740
:101D5000B8F04817590771F482819381109729F0E0
:101D600013969C938E9312972CC090934204809369
:101D7000410427C02115310531F04217530718F0EF
:101D8000A901DB0101C0EF019A01BD01DF01028061
:101D9000F381E02DD7CF21153105F9F0281B390B40
:101DA0002430310580F48A819B816115710521F011
:101DB000FB019383828304C0909342048093410487
:101DC000FE01329644C0FE01E20FF31F819391930E
:101DD00022503109398328833AC020913F04309141
:101DE0004004232B41F420910601309107013093E8
:101DF000400420933F0420910401309105012115F6
:101E0000310541F42DB73EB74091080150910901C9
:101E1000241B350BE0913F04F0914004E217F307D7
:101E2000A0F42E1B3F0B2817390778F0AC014E5F4A
:101E30005F4F2417350748F04E0F5F1F5093400443
:101E400040933F048193919302C0E0E0F0E0CF0122
:101E5000DF91CF910895CF93DF93009709F487C066
:101E6000FC01329713821282C0914104D091420446
:101E7000209781F420813181280F391F80913F0400
:101E8000909140048217930779F5F0934004E09312
:101E90003F046DC0DE0120E030E0AE17BF0750F414
:101EA00012964D915C9113979D014115510509F1D1
:101EB000DA01F3CFB383A28340815181840F951F50
:101EC0008A179B0771F48D919C911197840F951F30
:101ED00002969183808312968D919C9113979383A0
:101EE00082832115310529F4F0934204E0934104E3
:101EF0003EC0D9011396FC93EE9312974D915D91DC
:101F0000A40FB51FEA17FB0779F480819181840F34
:101F1000951F0296D90111969C938E93828193818D
:101F200013969C938E931297E0E0F0E08A819B8158
:101F3000009719F0FE01EC01F9CFCE01029628813D
:101F40003981820F931F20913F043091400428175C
:101F5000390769F4309729F4109242041092410431
:101F600002C013821282D0934004C0933F04DF91D9
:101F7000CF910895FC010590615070400110D8F791
:101F8000809590958E0F9F1F0895DC0101C06D9381
:101F900041505040E0F70895FC01615070400190BD
:101FA0000110D8F7809590958E0F9F1F08950F937D
:101FB0001F93CF93DF93182F092FEB018B8181FDA6
:101FC00003C08FEF9FEF20C082FF10C04E815F8162
:101FD0002C813D81421753077CF4E881F9819F01F0
:101FE0002F5F3F4F39832883108306C0E885F9852A
:101FF000812F0995892B29F72E813F812F5F3F4F34
:102000003F832E83812F902FDF91CF911F910F91CE
:102010000895FA01AA27283051F1203181F1E8947E
:102020006F936E7F6E5F7F4F8F4F9F4FAF4FB1E0CB
:102030003ED0B4E03CD0670F781F891F9A1FA11DC6
:10204000680F791F8A1F911DA11D6A0F711D811DC7
:10205000911DA11D20D009F468943F912AE0269F8C
:1020600011243019305D3193DEF6CF010895462FEB
:102070004770405D4193B3E00FD0C9F7F6CF462FCC
:102080004F70405D4A3318F0495D31FD4052419335
:1020900002D0A9F7EACFB4E0A695979587957795F2
:1020A0006795BA95C9F700976105710508959B0179
:1020B000AC010A2E06945795479537952795BA9502
:1020C000C9F7620F731F841F951FA01D0895052E69
:1020D00097FB1EF400940E947E1057FD07D00E94CB
:1020E000D01007FC03D04EF40C947E105095409510
:1020F000309521953F4F4F4F5F4F089590958095B4
:10210000709561957F4F8F4F9F4F08950E94F210F9
:10211000A59F900DB49F900DA49F800D911D11243B
:102120000895B7FF0C9486100E948610821B930BB3
:1021300008952F923F924F925F926F927F928F926B
:102140009F92AF92BF92CF92DF92EF92FF920F9346
:102150001F93CF93DF93CDB7DEB7CA1BDB0B0FB650
:10216000F894DEBF0FBECDBF09942A88398848880D
:102170005F846E847D848C849B84AA84B984C884A3
:10218000DF80EE80FD800C811B81AA81B981CE0F9A
:10219000D11D0FB6F894DEBF0FBECDBFED0108957F
:1021A000A1E21A2EAA1BBB1BFD010DC0AA1FBB1F5B
:1021B000EE1FFF1FA217B307E407F50720F0A21BCD
:1021C000B30BE40BF50B661F771F881F991F1A943A
:1021D00069F760957095809590959B01AC01BD0164
:1021E000CF010895A29FB001B39FC001A39F700DBE
:1021F000811D1124911DB29F700D811D1124911D0F
:062200000895F894FFCFE1
:102206000100000000004304200000180012001026
:10221600526967687420627574746F6E2070726597
:10222600737365642C207072696E74696E672076AC
:10223600616C7565733A090900583A202569095990
:102246003A202569094C3A20256909523A20256920
:102256000A004C65667420427574746F6E20507265
:1022660065737365640043616C6962726174696F5A
:102276006E2076616C7565733A200963616C5F58F0
:102286003A2025690963616C5F593A25690A00524B
:1022960065666572656E63652056616C7565733A31
:1022A6002009582025690959202569094C202569E6
:1022B6000952202569090A005374617274696E67B0
:1022C600205352414D20746573742E2E2E00577282
:1022D600697465207068617365206572726F723A01
:1022E600206578745F72616D5B2534645D203D20E6
:1022F60025303258202873686F756C64206265201B
:1023060025303258290A0052657472696576616C07
:10231600207068617365206572726F723A20657805
:10232600745F72616D5B2534645D203D202530321B
:1023360058202873686F756C6420626520253032DA
:1023460058290A005352414D207465737420636FF7
:102356006D706C6574656420776974680A253464E9
:10236600206572726F727320696E20777269746568
:1023760020706861736520616E640A253464206587
:1023860072726F727309696E20726574726965760E
:10239600616C2070686173650A0A0031353A303124
:1023A6003A3431004F637420203420323031370004
:1023B6006C346432004C4F4144494E4720673137F4
:1023C6005F25732025732025730A494E49544941D8
:1023D6004C495A494E472E2E2E0A0A554152542030
:1023E6007375636365737366756C6C7920696E6962
:1023F6007469616C697A65640A0A00424F4F5449F0
:102406004E470A53435245454E004F4C45442073B0
:1024160075636365737366756C6C7920696E697430
:1024260069616C697A656400636F6E74726F6C20A3
:10243600696E707574207375636365737366756C06
:102446006C7920696E697469616C697A65640A00E1
:102456005352414D207375636365737366756C6C77
:102466007920696E697469616C697A656400496E80
:1024760074657272757074732073756363657373B4
:1024860066756C6C7920696E697469616C697A65C8
:102496006400496E7465727275707473206163743A
:1024A600697661746564000A494E495449414C494C
:1024B6005A4154494F4E20434F4D504C45544500C8
:1024C600202020202020202020203C2D2D2D3C3C8B
:0224D600000004
:00000001FF
